:020000040800F2
:10000000888F00204103000847340008452C000871
:1000100045340008690A0008A542000800000000F5
:100020000000000000000000000000008102000845
:10003000E90B000800000000DD020008473B000853
:100040005B0300085B0300085B0300085B03000818
:100050005B0300085B0300085B0300085B03000808
:100060005B0300085B0300085B0300085B030008F8
:100070005B0300085B0300085B0300085B030008E8
:100080006D0A0008790A0008350900080000000020
:100090000000000000000000000000005B030008FA
:1000A0005B0300085B0300085B0300085B030008B8
:1000B0005B030008013C00085B0300085B030008C9
:1000C0005B0300085B0300085B0300085B03000898
:1000D0005B0300085B030008994200080000000071
:1000E0005B0300085B0300085B03000800000000DE
:1000F0000000000000000000000000005B0300089A
:10010000000000005B0300085B0300085B030008BD
:1001100000000000000000000000000000000000DF
:10012000850A00085B0300085B0300085B03000806
:100130005B03000800000000000000000000000059
:100140000000000000000000000000005B03000849
:100150005B0300085B0300085B0300085B03000807
:100160005B0300085B0300080000000000000000C3
:10017000000000000000000000000000000000007F
:10018000000000005B030008000000000000000009
:100190005B0300085B03000800F002F800F060F861
:1001A0000AA090E8000C82448344AAF10107DA45D2
:1001B00001D100F055F8AFF2090EBAE80F0013F0C4
:1001C000010F18BFFB1A43F0010318475C600000E1
:1001D0007C6000000A444FF0000C10F8013B13F063
:1001E000070408BF10F8014B1D1108BF10F8015B90
:1001F000641E05D010F8016B641E01F8016BF9D183
:1002000013F0080F1EBF10F8014BAD1C0C1B09D1D9
:100210006D1E58BF01F801CBFAD505E014F8016B4B
:1002200001F8016B6D1EF9D59142D6D370470000DD
:100230000023002400250026103A28BF78C1FBD8EF
:10024000520728BF30C148BF0B6070471FB505F08B
:10025000A5FF9DE8030000F015FA1FBD10B510BD05
:1002600000F09EFA1146FFF7F1FF04F02FF900F0BD
:10027000BCFA03B4FFF7F2FF03BC00F0EDFA000094
:100280002C4B19680868B0E8F04F80F30988BFF379
:100290006F8F4FF0000080F311887047000000005E
:1002A00008480068006880F308884FF0000080F379
:1002B000148862B661B6BFF34F8FBFF36F8F00DF54
:1002C00000BF00BF08ED00E0DFF80C00016841F45A
:1002D00070010160704700BF88ED00E0EFF3098016
:1002E000BFF36F8F134B1A681EF0100F08BF20ED7D
:1002F000108A20E9F04F106009B44FF0500080F3ED
:100300001188BFF34F8FBFF36F8F05F0C1F94FF026
:10031000000080F3118809BC19680868B0E8F04F44
:100320001EF0100F08BFB0EC108A80F30988BFF3ED
:100330006F8F704728010020EFF3058070470000A1
:100340000948804709480047FEE7FEE7FEE7FEE769
:10035000FEE7FEE7FEE7FEE7FEE7FEE704480549A5
:10036000054A064B70470000F13B00089901000860
:10037000884F0020888F0020886F0020886F002021
:1003800070B5064600F062F9056806F10B0020F032
:100390000704B4429CBF002070BD2B466A68BAB106
:1003A0001068A04210D304F1080188423CBF506895
:1003B000586007D35168101941601168091B01602A
:1003C00058601460101D70BD13465268002AE7D1B2
:1003D0002146284600F042F90028DED170BD70B5F4
:1003E0000446051F00F032F90068002C14BF446871
:1003F00070BD002C18BFAC423CBF20466468F8D3E7
:1004000001680A18AA4218BF456003D12A68054648
:100410001144016028684119A1421CBF6C6070BD85
:100420006168696021680844286070BD53EA020C65
:1004300000F069802DE9F04B4FF00006002B1FBF44
:10044000B3FA83F503FA05F424FA05F65E4012BF09
:100450001643B2FA82F502FA05F4C5F120051EBF73
:1004600022FA05FC44EA0C04203556EA044C4FEA13
:10047000144418BF641C4FF000084FF0000990426C
:1004800071EB030C39D3002919BFB1FA81F701FAD6
:1004900007F6B0FA80F700FA07F6C7F120071EBF8B
:1004A00020FA07FC46EA0C062037B6FBF4FCA7EB63
:1004B0000507103F07F01F0BCBF120060CFA0BFBD2
:1004C0002CFA06F644BFB3460026202FA4BF5E4692
:1004D0004FF0000B5BEA060C08BF4FF0010B19EB65
:1004E0000B09ABFB027C48EB0608C01B06FB02CCE9
:1004F0000BFB03CC71EB0C01C1E70B4602464146F6
:100500004846BDE8F08B13B54FF000004FF00001F6
:10051000AFF30080BDE81C407047032A40F23080F2
:1005200010F0030C00F0158011F8013BBCF1020F34
:10053000624498BF11F801CB00F8013B38BF11F8B5
:10054000013BA2F1040298BF00F801CB38BF00F8CC
:10055000013B11F0030300F0CB80083AC0F00880A3
:1005600051F8043B083A51F804CBA0E80810F5E72D
:10057000121D5CBF51F8043B40F8043BAFF3008010
:10058000D20724BF11F8013B11F801CB48BF11F885
:10059000012B24BF00F8013B00F801CB48BF00F855
:1005A000012B704702F0FF0343EA032242EA0242B2
:1005B00000F002B84FF000020429C0F0128010F0E1
:1005C000030C00F01B80CCF1040CBCF1020F18BF2F
:1005D00000F8012BA8BF20F8022BA1EB0C0100F0C2
:1005E0000DB85FEAC17C24BF00F8012B00F8012B95
:1005F00048BF00F8012B70474FF0000200B51346CA
:1006000094469646203922BFA0E80C50A0E80C5032
:10061000B1F12001BFF4F7AF090728BFA0E80C50E3
:1006200048BF0CC05DF804EB890028BF40F8042BDC
:1006300008BF704748BF20F8022B11F0804F18BF49
:1006400000F8012B704770477047704700487047AB
:10065000304F0020704770477047704738B50446E8
:100660000A4600206946AFF30080002808BF38BD65
:1006700002460099204600F071F8012038BD0120A3
:1006800000F086B8F8B5AFF30080054600200C46B0
:10069000102000BF0646A819A0420DD9324669466F
:1006A0000020AFF30080070008BF00F071F8009849
:1006B000A04218BF0546C419FFF7C8FF05600746EA
:1006C000F01D20F007004619284600F00AF8B44251
:1006D00008BFF8BDA21B31463868BDE8F84000F0FD
:1006E0003DB800210160C0E901107047102070473B
:1006F00010B5203AC0F00B80B1E81850203AA0E8BD
:100700001850B1E81850A0E81850BFF4F5AF5FEAF0
:10071000027C24BFB1E81850A0E8185044BF18C9A3
:1007200018C0BDE810405FEA827C24BF51F8043B4A
:1007300040F8043B08BF7047D20728BF31F8023B9E
:1007400048BF11F8012B28BF20F8023B48BF00F832
:10075000012B704700487047284F0020034640682F
:100760008C46002818BF88423CBF03464068F8D337
:1007700018681844884207D00CF1030020F00700E5
:10078000001D411A521A0146081D0A60FFF727BED4
:1007900010B500F039F8BDE8104000F02FB87047F0
:1007A0007546FFF7D7FFAE4605006946534620F071
:1007B0000700854618B020B5FFF7D0FDBDE8204002
:1007C0004FF000064FF000074FF000084FF0000B0D
:1007D00021F00701AC46ACE8C009ACE8C009ACE8C0
:1007E000C009ACE8C0098D46704710B50446AFF3A8
:1007F00000802046BDE81040FFF73BBD002801D037
:1008000000F02AB87047000010B5012805D000217B
:1008100003A000F027F8012010BD09A1F8E70000AF
:1008200053494752544D454D3A204F7574206F66D9
:100830002068656170206D656D6F72790000000041
:100840003A2048656170206D656D6F727920636F25
:10085000727275707465640001491820ABBEFEE7C2
:100860002600020070B505460C460A2000E06D1C0B
:1008700000F011F835B128780028F8D102E0641CA6
:1008800000F009F814B120780028F8D1BDE87040D4
:100890000A20AFF3008008B569468DF800000320F8
:1008A000ABBE08BD10B50146806B026C12F0500F54
:1008B00005D0026CD20626D500F069FA10BD016C95
:1008C00041F40071016401688A6812F0405F17D139
:1008D000027EAAB9CA6A12F4700F02D08A68520561
:1008E0000ED44A6822F020024A60016C21F4807123
:1008F0000164016CC90403D4016C41F0010101647D
:1009000000F028FA10BD806BC26CBDE810400846AC
:10091000104710B5806B40210164416C41F0040127
:10092000416400F034FA10BD10B5806B00F02EFA6F
:1009300010BD0000014800F02BBA0000BC010020EF
:10094000464910B54A6822F440324A604A68436812
:100950001A434A6001684A6822F480724A6001685A
:100960004A68036942EA03224A6001684A6822F041
:1009700040724A6001684A6883681A434A600168A5
:100980008A6822F400628A6001688A68C3681A4330
:100990008A60816A6FF07062D14201688A6822F0D1
:1009A00070628A6001688A680CD0836A1A438A6020
:1009B00001688A6822F040528A6001688A68C36AC6
:1009C0001A4301E022F040528A6001688A6822F0EE
:1009D00002028A6001688A68037E42EA43028A60F2
:1009E00090F82010002901684A680FD042F4006294
:1009F0004A6001684A6822F460424A6001684A68B5
:100A0000174C436A04EB43331A4301E022F40062BB
:100A10004A600168CA6A22F47002CA620168CA6A3E
:100A2000838B104C04EB03531A43CA6201688A6833
:100A300022F400728A6001688A6890F8303042EAD5
:100A400043228A6001688A6822F480628A600168B1
:100A50008A68406942EA8020886010BD0023014016
:100A600000E0FFFF0000F0FFFEE70000014800F09B
:100A700095BB0000D8030020014800F08FBB0000A8
:100A800038040020014800F089BB00000402002067
:100A900001681823CAB2103AB2FBF3F2054B6FF3A8
:100AA0000901032A9B5CC36500D9091D81650846BD
:100AB00070470000F061000810B5014600208B6906
:100AC0008A6A4FF0C07453B1B3F5005F15D072B1AC
:100AD000012A0CD0022A0AD0032A09D104E01AB153
:100AE000012A06D0022A03D1C96AC90100D5012012
:100AF00010BDC96AA142FAD010BD002AF7D0012A60
:100B0000F2D0022AF3D0032AF3D010BD30B5046826
:100B1000256825F480252560046863608368402B80
:100B2000036803D099600068C26030BD9A600068B5
:100B3000C16030BD074808B54068009001460648CE
:100B40000269914202D2C168491CC16000990161E9
:100B500008BD0000001000E01800002000B50E499C
:100B60002DED028B81B0496800910168009A511AFD
:100B700000EE101A0949F8EE400A91ED000A0260F1
:100B8000B8EE400A80EE808AFFF7D4FF01B0B0EEE5
:100B9000480ABDEC028B00BD001000E018000020E8
:100BA0000D490A6842F080720A600C4900224A60CE
:100BB0000B6843F001030B6009494FF47A73484313
:100BC000B0FBF3F30749C1E90003054BB0FBF3F0B9
:100BD000C1E9020270470000FCED00E0001000E0F7
:100BE00040420F0018000020704772B6FEE77047C1
:100BF00078B50024009490F83C20012A19D00122F5
:100C000080F83C200A6807230568092A13D9EE6892
:100C10000A3A02EB420293409E43EE600B788A68E8
:100C20000A3B03EB43039A400368DD682A43DA601A
:100C300010E0022078BD2E6902EB420293409E43F1
:100C40002E610B788A6803EB43039A4003681D69A1
:100C50002A431A614A681F23072A13D205686E6B5C
:100C6000521E02EB820293409E436E630A8893B247
:100C70000A79521E02EB820293400268556B2B43A5
:100C8000536327E005680D2A12D22E6BD21F02EBA8
:100C9000820293409E432E630B790A88DB1F92B237
:100CA00003EB83039A4003681D6B2A431A6311E028
:100CB000EE6A0D3A02EB820293409E43EE620B799C
:100CC0000A880D3B92B203EB83039A400368DD6A06
:100CD0002A43DA621B4B0568194A9D420AD10D6806
:100CE000122D07D1556825F400055560556845F467
:100CF0008005556005689D421DD1134D0B68AB42C0
:100D000001D0112B17D1536823F48003536053682B
:100D100043F4000353600968A9420CD10B490C4A03
:100D20000968B1FBF2F101EB8101490000E0491EC5
:100D300000910029FBD180F83C40002078BD0000E4
:100D40000023014000200140120000101400002088
:100D500040420F000A48DFED0B0A0188418000EE97
:100D6000101AB8EE400A20EE200AF0EE040A20EE37
:100D7000200ADFED050A80EE201A80ED011A704787
:100D8000200100203333634000F07F4570477047F7
:100D900070B5044600680668456816F0020F05F055
:100DA00020012AD049B3216CC90603D4216C41F437
:100DB00000712164816811F0405F17D1217EA9B9CB
:100DC000C16A11F4700F02D0816849050ED44168E0
:100DD00021F020014160206C20F480702064206CA0
:100DE000C00403D4206C40F0010020642046FFF7CB
:100DF000B1FF21686FF01200086016F0040F05F0D3
:100E0000800132D089B3206CC00603D4206C40F43A
:100E1000005020642068816811F4401F1ED1816B4E
:100E200011F4401F02D08168490517D44168490573
:100E300014D4816811F0405F10D1217E71B94168EE
:100E400021F080014160206C20F480502064206CEF
:100E5000C00503D4206C40F0010020642046FFF759
:100E6000C6FE21686FF00C00086016F0010F05F057
:100E700040010FD071B120680068C0070AD0206C13
:100E800040F480302064204600F043F821686FF081
:100E90000100086016F0200F05F080610ED00029D7
:100EA0000CD0606C40F00200606420686FF0200598
:100EB00005602046FFF76BFF2068056070BD70B5C8
:100EC00004004FF0000503D0206C002610B107E0AD
:100ED000012070BD204600F01DF8666484F83C6077
:100EE000206CC00610D4206C20F4885040F0020022
:100EF00020642046FFF724FD6664206C20F0020089
:100F000040F00100206400E0012584F83C602846A0
:100F100070BD704770B586B0064614216846FFF76D
:100F20006BFB2149306888423CD12048002501688C
:100F300041F480710160006800F4807005901B48E6
:100F40001438016841F0010101600068694600F051
:100F500001000590102000900320CDE90105144800
:100F600000F08EFA144C1348C4E900050015A56082
:100F7000C4E90350400060618000A0614011C4E9F1
:100F800007052046656200F0D9F908B1FFF72DFE8C
:100F9000B463002205211220A66300F0CFFD1220C9
:100FA00000F0BEFD06B070BD002001404438024094
:100FB000000002401064024004020020F8B513460D
:100FC00000220446009290F83C000E46114601288B
:100FD00007D0012084F83C0020688568ED0702D026
:100FE00011E00220F8BD856845F0010585603648AE
:100FF000364D0068B0FBF5F000EB400000E0401E0D
:1010000000900028FBD120688568ED0503D5856830
:1010100025F48075856020688568ED0749D0216CCE
:1010200040F20165A94341F48071216440684005A4
:1010300005D5206C20F4005040F480502064206CD2
:10104000C00404D5606C20F00600606400E06264B7
:1010500084F83C20A16B1F481D4DC863A16B1E483E
:101060000864A16B1D48C86421686FF02200086005
:101070002068416841F0806141602068816841F4E6
:1010800080718160216832464C31A06B00F0C0F95C
:1010900001466868C006206802D0114A904210D10B
:1010A000826812F0405F0CD1826842F08042826018
:1010B00007E0206C40F010002064606C40F00100FC
:1010C00060640846F8BD00001400002040420F0094
:1010D00000230140A5080008290900081309000899
:1010E000002001402DE9F0410446876D00F0B8FA78
:1010F000064694F835000025022806D08020606559
:1011000084F834500120BDE8F0812068016821F0A6
:10111000160101602068416921F080014161206C65
:1011200008B9A06C20B12068016821F008010160B5
:101130002068016821F0010101600CE000F090FAE4
:10114000801B052807D920206065032084F835001E
:1011500084F83450D7E720680068C007EED194F8CF
:101160005C103F208840B860012084F8350084F886
:1011700034500020C7E790F83510022903D08021B1
:10118000416501207047052180F83510006801682D
:1011900021F0010101600020704700002DE9F843B3
:1011A00004464FF00009CDF8009063484FF4165103
:1011B000A56D0068B0FBF1F72E6894F85C1008206C
:1011C00000FA01F131420FD021680A6852070BD5AD
:1011D0000A6822F004020A6094F85C108840A86053
:1011E000606D40F00100606594F85C104FF00108FC
:1011F00008FA01F0304208D021684969090604D58F
:10120000A860606D40F00200606594F85C100420F6
:101210008840304208D021680968890704D5A86051
:10122000606D40F00400606594F85C101020884008
:10123000304218D021680968090714D5A8602068D1
:101240000168490304D50068000308D5A16C07E0D4
:101250000168C90503D4016821F008010160216C0F
:1012600009B12046884794F85C102020884030421D
:1012700031D021680968C9062DD5A86094F83500D9
:1012800005282068016806D0490347D50068000397
:101290001DD4616C1CE021F01601016020684169D9
:1012A00021F080014161206C08B9A06C20B1206858
:1012B000016821F00801016094F85C103F2088402B
:1012C000A86084F8358084F83490216D1FE0E16BCC
:1012D00009B120468847606D00282BD0606DC0079B
:1012E00014D0052084F835002068016821F0010140
:1012F00001600098401C0090B84203D82068006844
:10130000C007F6D184F8358084F83490E16C002968
:1013100010D001B02046BDE8F04308470168C90578
:10132000D5D4016821F01001016084F8358084F87B
:101330003490CCE7BDE8F883140000202DE9F0419B
:10134000044600F08DF906465CB1022084F83500B1
:10135000002584F834502068016821F00101016003
:101360000DE00120BDE8F08100F07AF9801B05282E
:1013700005D920206065032084F83500F2E7206855
:101380000068C007F0D12268116820480140D4E904
:1013900001031843D4E90336334318436369184300
:1013A000A3691843E3691843236A18430843616A31
:1013B000042903D1D4E90B131943084310602068B2
:1013C0004069666A20F0070130460E430127042871
:1013D0000CD1A06A0643E06A40B12046FFF76CFBDF
:1013E00020B14020606584F83570BAE72068466116
:1013F0002046FFF74DFB94F85C203F21914081602F
:10140000656584F835700020ACE700003F8010F07F
:101410002DE9F0410446866D90F83400002501283E
:101420000DD0012084F8340094F835700020012F8D
:1014300007D084F8340002252846BDE8F081022058
:10144000FBE7022784F8357060652046FFF75EFBF6
:1014500094F85C103F208840B0602068016841F03B
:1014600016010160206C20B12068016841F008017C
:1014700001602068016841F001010160DCE70000C3
:101480002DE9F84FDFF8B8A10022012403254FF021
:101490000F090AF1040BAAF1040E00BF0B6804FA4D
:1014A00002F63340B34273D10F7907F00307012FDF
:1014B00001D0022F16D187684FEA420805FA08FCCE
:1014C00027EA0C07D1F80CC00CFA08FC4CEA070C10
:1014D000C0F808C04768B7430E79C6F300169640B7
:1014E0003E4346600E79F643B6070DD0C7685600F6
:1014F00005FA06FC27EA0C07D1F808C00CFA06FC2E
:101500004CEA070CC0F80CC00E7906F00306022E58
:1015100010D1D60800EB8608D8F8206057074FEAAC
:10152000D76C09FA0CF7BE430F6907FA0CF737437B
:10153000C8F8207006684FEA420C05FA0CF7BE4363
:101540000F7907F0030707FA0CF7374307604E6877
:1015500016F4403F6DD03B4E376847F48047376004
:10156000366822F0030706F480460096364E07EBF5
:10157000060CDCF8086897073F0F09FA07F826EA17
:101580000806DFF8C880404503D14FF000081EE090
:101590004FE0DFF8BC80404502D14FF0010816E073
:1015A000DFF8B080404502D14FF002080FE0DFF8CD
:1015B000A880404502D14FF0030808E0DFF89C8086
:1015C000404502D14FF0040801E04FF0070808FA47
:1015D00007F848EA0608CCF80888DAF800605746A9
:1015E000D1F804C09E435FEACC2C00D51E433E6078
:1015F000DBF800605F46D1F804C09E435FEA8C2CA4
:1016000000D51E433E60DEF800607746D1F804C086
:101610009E435FEA8C3C00D51E433E60084F083F66
:101620003E68D1F804C09E435FEACC3C00D51E431F
:101630003E60521C102AFFF431AFBDE8F88F000065
:10164000083C0140443802400030014000000240A4
:101650000004024000080240000C0240001002405A
:1016600001488068704700000800002070B5040041
:1016700025D094F83D00002520B984F83C50204640
:1016800000F0BAF9242084F83D002068016821F0B8
:10169000010101602068016841F400410160206897
:1016A000016821F40041016000F014FB4D4A6168BB
:1016B000914201D84C4900E04C49884201D20120B6
:1016C00070BD4B492368B0FBF1F15E6826F03F0620
:1016D0000E435E606368934206D94FF49673594394
:1016E0004FF47A73B1FBF3F12368491C1E6A26F0AC
:1016F0003F06314319626168914210D84900401E8B
:10170000B0FBF1F2521CC2F30B02042A01D20420F6
:1017100022E0B0FBF1F0401CC0F30B001CE0A2681B
:10172000F2B301EBC10303EB0116431EB3FBF6F367
:101730005B1C43F480431B0549D092B301EBC1020B
:1017400002EB0111401EB0FBF1F0401CC0F30B0096
:1017500040F4804040F400402168CA694CF6FF73B1
:101760009A431043C861D4E9071001432068026816
:1017700022F0C00211430160D4E903010143206853
:10178000826848F2FF339A4311438160D4E905012E
:1017900008432168CA6822F0FF021043C86001E0D4
:1017A0000EE016E02068016841F001010160256447
:1017B000202084F83D00256384F83E50002070BD51
:1017C00001EB4106431EB3FBF6F35B1CB3E70120BC
:1017D000C2E701EB4101401EB0FBF1F0401CC0F339
:1017E0000B00B7E7A086010080841E0000093D00C1
:1017F00040420F002DE9FF4F83B09A46DDE9118783
:1018000093460446DDF84090FFF72AFF054694F81A
:101810003D00202870D119230122744920460095EB
:1018200001F0A6FA0028F5D194F83C00012863D015
:10183000012084F83C0020680168C90703D10168D1
:1018400041F0010101602068016821F4006101603C
:10185000222084F83D00402084F83E0000262664C3
:10186000C4F82490A4F82A80608D20856048E06246
:10187000CDE9007553465A462046049901F0FAF91D
:10188000002879D1208DD0B1012821D002282068EC
:1018900024D0416980690090208D032866D80128F2
:1018A0002BD0544902283B464FF00002009557D0F8
:1018B0008846204601F05CFA00285DD13AE02068B5
:1018C000416981690091016841F4007101607DE026
:1018D0002068016821F480610160F0E7016821F46B
:1018E000806101602068016841F400610160206846
:1018F00041698069009069E075E02A4639462046D2
:1019000001F0DCFA88BB54E02068016841F4007102
:10191000016020680069616A0870606A401C60624A
:10192000218D491E2185618D491E618521680969C6
:10193000017042E02068016821F480610160206844
:101940000069616A0870606A401C6062208D401EF8
:101950002085608D401E60853B46002241460095F3
:10196000204601F005FA00B9CEE705E02A463946DF
:10197000204601F0A3FA18B1012007B0BDE8F08FAE
:1019800020680069616A0870606A401C6062208D8E
:10199000401E81B22185608D401E608520684269AD
:1019A000D243520712D4032903D1016821F4806184
:1019B000016020680069616A0870606A401C6062AA
:1019C000208D401E2085608D401E6085208D002862
:1019D0007FF462AF202084F83D0084F83E6084F8F4
:1019E0003C600020C9E70220C7E7000002001000A9
:1019F0000000FFFF0400010010B586B0044614216A
:101A00006846FEF7F9FD14492068884221D1134841
:101A10000021026842F002020260006800F0020049
:101A200005904FF4407000901220CDE90101032091
:101A300003900420049069460948FFF721FD0748F8
:101A40001030016841F400110160006800F40010DA
:101A5000059006B010BD0000005400403038024030
:101A60000004024002488168027811448160704796
:101A7000080000200B4810B5016841F400710160B6
:101A8000016841F480610160016841F48071016086
:101A9000032000F073F80F2000F006F800F024F89F
:101AA000002010BD003C024070B50D4D04464FF4BF
:101AB0007A712878B1FBF0F00A490968B1FBF0F0BF
:101AC00000F010FB48B9102C07D200222146501E0E
:101AD00000F034F800206C6070BD012070BD000083
:101AE00008000020140000200C4882B0016841F476
:101AF00080410160006800F4804000900748001FAA
:101B0000016841F0805101600068002200F08050BF
:101B100000900F21901E02B000F010B8443802402F
:101B2000002809DB00F01F020121914040098000DC
:101B300000F1E020C0F8001170470000F0B40E4B37
:101B40001B680C46C3F30223C3F10705042D00D91B
:101B50000425191D072901D2002300E0DB1E012600
:101B600006FA05F1491E214099409E40761E164016
:101B70003143F0BC02F097BB0CED00E0064900F0E9
:101B8000070208684FF6FF03184040EA0220034AA4
:101B900010430860704700000CED00E00000FA05FB
:101BA0002DE9F0470E46050065D0DFF81481D8F81E
:101BB0000000F7B200F00700B04207D288F80070CA
:101BC000D8F8000000F00700B04254D128683D4C1E
:101BD000810712D5400703D5206840F4E05020600B
:101BE0002878000703D5206840F460402060206812
:101BF000A96820F0F000084320602878C0072DD0A5
:101C0000304968680839012812D0022813D0032807
:101C100011D00968890700292DDA216821F0030114
:101C200001432160FFF71CFD814641F2883A0EE036
:101C300009688903EFE709688901ECE7FFF710FD00
:101C4000A0EB0901514502D90320BDE8F0872068C7
:101C5000696800F00C00B0EB810FEFD1D8F80010EC
:101C6000404601F00701B14207D90770006800F053
:101C70000700B04201D00120E7E72878400705D5EA
:101C80002068E96820F4E0500843206028780007C5
:101C900006D52068296920F4604040EAC100206030
:101CA00000F038F82168084AC1F30311515CC840BC
:101CB0000649086006480068FFF7F6FE0020C4E702
:101CC000003C024008380240F8610008140000207F
:101CD0000C0000200448054900680968044AC1F363
:101CE0008221515CC840704714000020083802402F
:101CF000086200080448054900680968044AC1F3FD
:101D00004231515CC840704714000020083802403E
:101D100008620008154810B5006810F00C0214485D
:101D200013D01449042A0FD0082A0ED10F4C241FB7
:101D30002268236802F03F025B0207D52068C0F3E7
:101D40008810A0FB010106E0084610BD2168C1F320
:101D50008811A1FB00010023FEF768FB2168C1F395
:101D60000141491C4900B0FBF1F010BD08380240A8
:101D70000024F400002D31012DE9F84F04006ED04D
:101D80002078DFF84C93C007A9F104054AD009F187
:101D900004000168C1F38101012908D00068C0F383
:101DA000810002280AD1D9F80000400206D528682F
:101DB000800337D560680028E1D033E06068B0F573
:101DC000803F10D0B0F5A02F286810D020F48030CC
:101DD0002860286820F4802028606068A8B1FFF798
:101DE0003FFC06460DE0286840F48030F4E740F4FC
:101DF00080202860F7E700BFFFF732FC801B6428D3
:101E000073D828688003F7D50CE0FFF729FC064655
:101E100005E000BFFFF724FC801B6428F0D8286889
:101E20008003F7D42078DFF8AC8280074FF0000AF7
:101E30003ED5A748001D016811F00C0F08D00068BE
:101E4000C0F3810002280BD1D9F80000400207D46A
:101E50002868800716D5E068012800D112E033E138
:101E6000E068B8B10120C8F80000FFF7F9FB0646AA
:101E700005E000BFFFF7F4FB801B0228C0D82868EC
:101E80008007F7D52868216920F0F80040EAC100F2
:101E900028600DE0C8F800A0FFF7E2FB064604E06A
:101EA000FFF7DEFB801B02281FD828688007F7D4C5
:101EB0002078000722D5864F87486169703771B155
:101EC00001210160FFF7CCFB064604E0FFF7C8FBE9
:101ED000801B022809D838688007F7D50EE0C0F8C3
:101EE00000A0FFF7BDFB064605E082E0FFF7B8FB68
:101EF000801B02287DD838688007F7D420784007F7
:101F000068D5DFF8CCB100270BF13C0BDBF8000003
:101F1000C0000BD4DBF8001041F08051CBF800106A
:101F2000DBF80000012700F0805000906B4E306815
:101F3000C00510D4306840F480703060FFF790FB2B
:101F4000009005E0FFF78CFB0099401A022850D85A
:101F50003068C005F6D55E4EA0686C3601280FD0FB
:101F60000528306810D020F001003060306820F083
:101F700004003060A068B8B1FFF772FB00900FE07A
:101F8000306840F00100F4E740F004003060F7E70B
:101F9000FFF766FB0099411A41F28830814266D80A
:101FA00030688007F4D50EE0FFF75AFB009007E099
:101FB000FFF756FB0099411A41F28830814256D80A
:101FC00030688007F4D42FB1DBF8001021F0805185
:101FD000CBF80010A069C8B33D49091D0968C1F3D9
:101FE000810102294AD00228504607D0C8F8600073
:101FF00000E03CE0FFF734FB04463BE04746C8F80E
:102000006000FFF72DFB064605E000BFFFF728FB49
:10201000801B02282BD828688001F7D4D4E9070157
:102020000843A16A2E4A490802EB0141626A41EA6B
:102030008211084394F82C1040EA0161C9F800109D
:1020400001203866FFF70CFB044606E03EE000BFC7
:10205000FFF706FB001B022809D828688001F7D586
:1020600034E000BFFFF7FCFA001B022802D903206E
:10207000BDE8F88F28688001F4D427E00128F7D064
:10208000D9F80000E26900F4800191421CD1226A73
:1020900000F03F01914217D147F6C071626A0140DA
:1020A000B1EB821F10D1A26A4FF0FF3300F4403130
:1020B00003EB5202B1EB024F06D194F82C1000F062
:1020C0007060B0EB016F01D00120D1E70020CFE7B5
:1020D0000438024000004742800E47420070004032
:1020E0000000FFFF10B5401EB0F1807F01D301203A
:1020F00010BD4FF0E02460610F21601702F0D3F8AB
:102100000020A06107202061002010BD70477047AB
:1021100070B590F83C20012A2CD0012480F83C4076
:10212000022280F83D2003685A689D6822F07006FC
:102130000A6832435A60104B02689A420ED0B2F1DC
:10214000804F0BD00D4B9A4208D00D4B9A4205D0D0
:102150000C4B9A4202D00C4B9A4204D1496825F0AC
:1021600080031943916080F83D40002180F83C10C5
:10217000084670BD022070BD000001400004004010
:1021800000080040000C00400040014010B5040071
:1021900003D094F83D0010B107E0012010BD0020ED
:1021A00084F83C00204600F01FF8022084F83D002F
:1021B000211D206801F02AFD012084F8460084F8E2
:1021C0003E0084F83F0084F8400084F8410084F821
:1021D000420084F8430084F8440084F8450084F801
:1021E0003D00002010BD000008B501681348814281
:1021F00001D1134819E01248001FB1F1804F14D0EB
:10220000104A914219D1016841F002010160006851
:10221000002200F00200009005211D20FFF78EFC37
:10222000BDE808401D20FFF77BBC016841F00101BB
:102230000160006800F00100009008BD000001404E
:10224000443802400004004090F83D10012901D0BC
:1022500001207047022180F83D100168CA6842F0F1
:102260000102CA6000680E4988420ED0B0F1804F6A
:102270000BD00C49884208D00B49884205D00B4945
:10228000884202D00A49884204D1816801F00701DE
:10229000062903D0016841F0010101600020704768
:1022A000000001400004004000080040000C004015
:1022B0000040014070B5044690F83C00002501281C
:1022C00017D0012684F83C60022084F83D00206885
:1022D000826822F0770222F47F42826008685028E8
:1022E00038D00DDC20284FD005DC90B3102811D158
:1022F0004AE0022070BD302846D040280AD13BE099
:1023000060282FD070280DD0B0F5805F03D0B0F5D5
:10231000005F12D0012584F83D60002084F83C0065
:10232000284670BDCB68D1E90121206801F0CBFCC3
:102330002068816841F0770109E0CB68D1E901218B
:10234000206801F0C0FC2068816841F48041816010
:10235000E1E719E0CA684968206801F069FD502189
:10236000206806E0CA684968206801F072FD6021B3
:10237000206801F0B2FCCEE7CA684968206801F025
:1023800057FD40212068F4E7226801461046F0E737
:1023900070472DE9F04104460068C66805694FF0B2
:1023A0000007A90713D5B10711D5F91E0161012056
:1023B0002077206880698007204602D0FFF7E8FF79
:1023C00004E000F0E5F8204600F077F92777680789
:1023D00016D5700714D521686FF00400086102203B
:1023E00020772068806910F4407F204602D0FFF7F4
:1023F000CFFF04E000F0CCF8204600F05EF927772C
:10240000280715D5300713D521686FF0080008613B
:10241000042020772068C0698007204602D0FFF79B
:10242000B7FF04E000F0B4F8204600F046F9277743
:10243000E80616D5F00614D521686FF01000086183
:10244000082020772068C06910F4407F204602D021
:10245000FFF79EFF04E000F09BF8204600F02DF906
:102460002777E80708D0F00706D021686FF0010051
:102470000861204600F07AF9280608D5300606D50E
:1024800021686FF0800008612046FFF73FFE680674
:1024900008D5700606D521686FF040000861204617
:1024A00000F065F9A8060AD5B00608D521686FF0D6
:1024B000200008612046BDE8F041FFF728BEBDE8D6
:1024C000F0810000F0B587B0044614216846FEF79D
:1024D00093F8216800242A4802252A4A2A4FB1F19C
:1024E000804F29D0294B994224D1016841F0010144
:1024F0000160016801F001010591016841F00201EC
:1025000001600068694600F002000590C02000905C
:10251000CDE901541046CDE90345FEF7B1FF032094
:102520000090CDE9015469463846CDE9034500BF26
:10253000FEF7A6FF07B0F0BD016841F001010160A0
:10254000016801F001010591016841F0020101609B
:10255000006801260096CDE9015400F00200CDE9A3
:102560000460694603941046FEF78AFF0820009035
:10257000CDE90154CDE9034669463846D8E7000065
:1025800030380240000002400004024000040040D5
:10259000704770B5044690F83C0000260D460128AF
:1025A0000FD0012084F83C006AB1042A1DD0082A0B
:1025B0002FD00C2A3FD00126002084F83C00304662
:1025C00070BD022070BD206801F090FB2068816919
:1025D00041F0080181612068816921F00401816175
:1025E000206881692A69114311E0206801F0A6FB87
:1025F0002068816941F4006181612068816921F46A
:1026000080618161206881692A6941EA02218161D2
:10261000D2E7206801F0BEFB2068C16941F00801E3
:10262000C1612068C16921F00401C1612068C169EC
:102630002A69114311E0206801F0D8FB2068C169C4
:1026400041F40061C1612068C16921F48061C16108
:102650002068C1692A6941EA0221C161ACE710B56D
:10266000040003D094F83D0010B107E0012010BD34
:10267000002084F83C00204600F01EF8022084F878
:102680003D00211D206801F0C1FA012084F84600B8
:1026900084F83E0084F83F0084F8400084F841004C
:1026A00084F8420084F8430084F8440084F845002C
:1026B00084F83D00002010BD7047704710B50446F7
:1026C000022249B104290ED0082913D094F8410000
:1026D000012816D0012010BD94F83E000128F9D140
:1026E00084F83E200FE094F83F000128F2D184F8EE
:1026F0003F2008E094F840000128EBD184F8402006
:1027000001E084F841200122206801F0CFFA12494B
:102710002068884203D1426C42F40042426420683F
:1027200088420ED0B0F1804F0BD00C49884208D0BF
:102730000B49884205D00B49884202D00A49884299
:1027400004D1816801F00701062903D0016841F036
:1027500001010160002010BD0000014000040040A4
:1027600000080040000C00400040014070477047E6
:1027700038B5044690F84200202801D0022038BD28
:1027800051B14AB10120206300206063204601F06E
:1027900033FD216B012901D0012038BD21680A6871
:1027A0004968009121680C3151E8002F42F0100275
:1027B00041E80023002BF5D138BD0000094A10B5CF
:1027C00090420ED10A460849064800F0F7F906483B
:1027D00002F090FFBDE81040142203490148FFF7C2
:1027E000C7BF10BD90030020A80100207047000063
:1027F000F8B5016804460868CA684B6910F00F0F05
:102800004FF0000559D003F0010602F490773743EA
:1028100065D0C10705D0D10503D5616C41F0010138
:102820006164410705D5D90703D0616C41F002010D
:102830006164810705D5D90703D0616C41F00401BB
:102840006164010707D502F02001314303D0616CB8
:1028500041F008016164616C00293AD0800604D51A
:10286000900602D5204601F0DFFB20684069616CCC
:10287000C0F38010090700D460B3204601F09FFB2D
:1028800020684069400621D52068143050E8001FB8
:1028900021F0400140E80012002AF5D1E06BA8B118
:1028A00072490165E06BFEF766FC002811D0E06B11
:1028B000016D01B0BDE8F040084783060FD59306CF
:1028C0000DD52046BDE8F84001F0AEBB2046FFF72D
:1028D0008DFFF8BD2046FFF789FF6564F8BD266BC4
:1028E0002023012E7ED1C6067CD5D6067AD508686F
:1028F0004868009048694FF0020640064DD5E26BEB
:10290000106840684FF480770004000C3AD0A18D25
:10291000814237D9E085D069B8422DD020680C308B
:1029200050E8001F21F4807140E80012002AF5D120
:102930002068143050E8001F21F0010140E8001227
:10294000002AF5D12068143050E8001F21F0400122
:1029500040E80012002AF5D184F84230256320684F
:102960000C3050E8001F21F0100140E80012002A4E
:10297000F5D1E06BFEF7B6FB6663A08DE18D401AE2
:1029800081B206E0A18D8142A8D1D069B842A5D11B
:1029900066632046FFF712FFF8BDA08DE18D401A57
:1029A00081B2E08D0028F7D00029F5D020680C30E6
:1029B00050E8002F22F4907240E80027002FF5D154
:1029C0002068143050E8002F22F0010240E8002770
:1029D000002FF5D184F84230256320680C3050E890
:1029E000002F00E006E022F0100240E80023002B58
:1029F000F3D1CDE705062BD5150629D594F841006E
:102A00002128C9D1A068B0F5805F01D12069B0B19B
:102A1000206A411C2162216800784860E08C401ED9
:102A20000004000CE084B7D12068C16821F0800167
:102A3000C1602068C16841F04001C160F8BD206AF2
:102A40000088C0F308004860206A801C2062E5E727
:102A50004006F3D55006F1D5CA68204622F0400260
:102A6000CA6084F8413000F0EBF8F8BD773E00080A
:102A700070B5040004D094F84100002510B106E0C0
:102A8000012070BD84F84050204600F023F8242037
:102A900084F841002068C16821F40051C1602046DB
:102AA00001F024FB2068016921F490410161206854
:102AB000416921F02A0141612068C16841F4005157
:102AC000C1606564202084F8410084F84200656399
:102AD000002070BD2DE9F04186B0064614216846FD
:102AE000FDF78AFD2F493068884258D12E480024CE
:102AF000016841F400310160006800F40030059085
:102B000029481038016841F00101016000686946F8
:102B100000F0010005900C2000900220019002902E
:102B200001200390072004902048FEF7A9FC214DC6
:102B30001F484FF000672860C5E901744FF48068B2
:102B4000C5E903486C61AC61EC612C6228466C629B
:102B5000FEF7F4FB08B1FEF748F8F563AE63154DD8
:102B6000134860351830E5E802074020A5E8110158
:102B7000104845F814496030AC61EC612C626C621D
:102B8000FEF7DCFB08B1FEF730F8B5630022052143
:102B90002620AE63FEF7D2FF2620FEF7C1FF06B067
:102BA000BDE8F0810044004040380240000002408F
:102BB00088600240D80300207047704770B5044613
:102BC00090F84100202801D0022070BD01B3FAB175
:102BD0002162A284E28400206064212384F84130D1
:102BE000A56B144BEB63A56B134B2B64A56B134BBD
:102BF000EB64A36B186520681346A56B021D28467D
:102C0000FEF706FC30B110206064202084F84100FB
:102C1000012070BD21686FF040000860206814300A
:102C200050E8001F41F0800140E80012002AF5D171
:102C3000002070BD733F0008B53F0008853E0008C6
:102C400070477047FEE701684A69D24352050FD4C6
:102C50006FF480624A61002140F8301F20224273E5
:102C60008173026942F0040202610173012070471E
:102C7000002070472DE9F84F0446006889460B9DF7
:102C800001689846174641F4806101602068016838
:102C900041F48071016000954FF0011B00225946FC
:102CA00020460A9B00F064F84FF4007A40B1206897
:102CB0000068C00501D5C4F840A00320BDE8F88F26
:102CC000216809F0FE0008612B46284920460A9A2F
:102CD00000F096F8F0BB20684169806900902A46B0
:102CE00020460A9900F022F940B1206C04283AD11C
:102CF0002068016841F40071016034E0FEB2B8F16F
:102D0000010F09D02168380A08612A4620460A992D
:102D100000F00CF90028E8D1206806612A46204618
:102D20000A9900F003F90028DFD12068016841F416
:102D30008071016000950022594620460A9B00F0F0
:102D400017F80028B3D1216809F0FF0040F0010016
:102D5000086100E007E02B46044920460A9A00F08B
:102D60004FF80028AAD00120A8E7000002000100C7
:102D70002DE9F047984617460D460446C1F307462D
:102D8000DDF820902AE000BFB8F1FF3F26D0FEF723
:102D900067FCA0EB0901414502D8B8F1000F1DD135
:102DA0002068012E16D0806925EA00000004000C7E
:102DB00012D00020B84211D1002044F8300F202159
:102DC0006173A073216941F020012161207301200A
:102DD000BDE8F0874069E7E70120EBE72068012EB6
:102DE0000AD0806925EA00000004000C06D000200B
:102DF000B842C9D00020EBE74069F3E70120F7E7CC
:102E00002DE9F047984616460D4604464FF0000956
:102E10004FF0200AC1F3074723E020684069C04310
:102E2000400515D42068016841F4007101602168F3
:102E30006FF480604861C4F8309084F83DA084F855
:102E40003E90216C41F00401216484F83C9021E023
:102E5000701C06D0FEF704FCA0EB0800B04203D8BB
:102E600016B1012F1FD021E02068012F15D08069F5
:102E700025EA00000004000C18D000BF44F8309F81
:102E800084F80DA084F80E90216941F020012161A1
:102E900084F80C900120BDE8F087406925EA000025
:102EA0000004000CEAD12068406901E020688069D4
:102EB00025EA00000004000CAFD1ECE72DE9F04159
:102EC000002590460E460446202728E04069C0436E
:102ED000C0060CD454F8301B6FF01000486144F861
:102EE00010596777A577206A2062257714E0FEF7EE
:102EF000B7FBA0EB0800B04200D886B92068406953
:102F0000C04340060BD544F8305F6773A573206952
:102F100040F02000206125730120BDE8F081206889
:102F20004169C9434906D1D40020F6E770B5164679
:102F30000D4604461EE02046FFF785FE08B101203D
:102F400070BD681C16D0FEF78BFB801BA84200D812
:102F500085B920684069C04300060BD5002044F8BD
:102F6000300F20216173A073216941F0200121619C
:102F70002073E4E720684069C0430006DBD40020EA
:102F800070BD000000B585B03222062103A88DE88F
:102F9000070001233D22A0211848FEF72BFC002842
:102FA00029D1BDF90C20BDF90E1000EE102A164AE9
:102FB000BDF91000F8EEC00A9FED110A20EE801A4C
:102FC000DFED100A21EE201A82ED001A01EE101A30
:102FD000B8EEC11A21EE001A21EE201A82ED011A74
:102FE00001EE100A0020B8EEC11A21EE000A20EE10
:102FF000200A82ED020A05B000BD00006402002034
:1030000000000038000034439804002000B585B06B
:103010003222062103A88DE8070001233722A021D0
:103020001848FEF7E7FB002829D1BDF90C20BDF9AF
:103030000E1000EE102A164ABDF91000F8EEC00A74
:103040009FED110A20EE801ADFED100A21EE201A02
:1030500082ED031A01EE101AB8EEC11A21EE001A21
:1030600021EE201A82ED041A01EE100A0020B8EEBB
:10307000C11A21EE000A20EE200A82ED050A05B0F1
:1030800000BD000064020020000000380000FA4487
:103090009804002010B50446FFF774FFFFF7B6FF51
:1030A000084890ED030A84ED000A90ED040A84EDCF
:1030B000010A90ED050A84ED020A90ED000A84ED04
:1030C000030A10BD980400207FB500241548009421
:1030D000019402941249039401604FF48031C0E9D5
:1030E00001140461047680F820400F49C0E90A14F5
:1030F0000125C561C46080F830404561FDF7DFFE01
:1031000008B1FDF772FD0420CDE90005694602947F
:103110000448FDF76DFD002801D0FDF766FD7FBD79
:1031200000200140BC0100200100000F154808B537
:10313000016841F400110160016801F4001100917F
:10314000016841F4800101600068002200F4800001
:10315000009005211020FEF7F1FC1020FEF7E0FCA6
:10316000002205211120FEF7E9FC1120FEF7D8FC12
:10317000002205213820FEF7E1FCBDE80840382098
:10318000FEF7CEBC3038024010B5074A0021074890
:1031900001F05CFA064C044A002120602432054804
:1031A00001F054FA606010BDA86100083F3B0008C0
:1031B00000000020214500080D4808B5016841F0D5
:1031C00080010160016801F080010091016841F017
:1031D00001010160016801F001010091016841F005
:1031E00002010160006800F00200009008BD0000CC
:1031F000303802400D4810B50B4901600C49416060
:1032000000214FF480428160C0E903124161816175
:10321000C1610162FEF72AFA002803D0BDE8104020
:10322000FDF7E3BC10BD0000005400406402002024
:10323000A086010010B586B00024174800940194C0
:1032400002940394049413490594C0E900144FF6C2
:10325000FF71C0E90241046144618461FEF796FF99
:1032600008B1FDF7C2FC4FF48050009069460A484F
:10327000FFF720F808B1FDF7B8FC049404A906484C
:103280000594FEF745FF002801D0FDF7AEFC06B01F
:1032900010BD000000000140B802002010B58EB043
:1032A00000240794089409940A940B941C216846FE
:1032B0000C94FDF7A1F922484FF08041016040F2E3
:1032C000CF71C0E901144910C0E903148461FEF70D
:1032D0005DFF08B1FDF789FC4FF48050079007A906
:1032E0001748FEF7E7FF08B1FDF77FFC1448FFF72A
:1032F000B6F908B1FDF779FC0B940BA910480C94B2
:10330000FEF706FF08B1FDF770FC6020CDE9000470
:103310000294002269460A480494FFF73AF908B17A
:10332000FDF763FC042269460548FFF732F908B14E
:10333000FDF75BFC0248FFF7C5F80EB010BD0000BA
:103340000003002010B58EB000240794089409945F
:103350000A940B941C2168460C94FDF74DF92A48F9
:103360002849016040F2CF71C0E901144910C0E959
:1033700003148461FEF70AFF08B1FDF736FC4FF431
:103380008050079007A92048FEF794FF08B1FDF789
:103390002CFC1D48FFF763F908B1FDF726FC0B94E0
:1033A0000BA919480C94FEF7B3FE08B1FDF71DFCFC
:1033B0006020CDE90004029400226946124804947A
:1033C000FFF7E7F808B1FDF710FC042269460E4844
:1033D000FFF7DFF808B1FDF708FC082269460A4844
:1033E000FFF7D7F808B1FDF700FC0C226946064844
:1033F000FFF7CFF808B1FDF7F8FB0348FFF762F8D5
:103400000EB010BD00040040480300200C4810B569
:103410000A4901604FF4E1314160002181600C22D2
:10342000C160C0E904128161C161FFF721FB00287E
:1034300003D0BDE81040FDF7D8BB10BD00440040EC
:1034400090030020FEE7FEE770B50446D0F80600C2
:1034500090ED011A784880ED031A0020042217E04D
:10346000D4F8061002EB8003CD1801EB8001D5EDF6
:10347000001A71EEC11AC1ED001AD4F80A100B44FB
:1034800001EB8001D3ED001A401CC1ED001A80B29F
:103490002188491E8142E3DC2188D4F806006FF0C0
:1034A000070202EB8102024492ED001A6FF0030260
:1034B00002EB810131EE000A084480ED000A218808
:1034C000D4F80A0002EB81010844C0ED000AD4F8E8
:1034D00002002188884202D2401CC4F80200102158
:1034E00004F11A00FDF766F82088D4F80210431A98
:1034F00099B23BE0D4F80620D4F81A5002EB8102CE
:1035000000EE905A92ED000A40EE000A10EE905A3A
:10351000C4F81A50D4F81E50D2ED000A00EE105A2A
:1035200030EE800A10EE105AC4F81E50D2ED000A98
:10353000D4F80A20D4F8225002EB810200EE105A8F
:1035400092ED001A491C89B200EE810A10EE105A61
:10355000C4F82250D2ED000AD4F8262000EE102A3A
:1035600030EE800A10EE102AC4F826208842C1D816
:1035700000EE100AD4F82210D4F82620B8EE400A43
:1035800000EE901AD4F81E1001EE102A60EE800AA8
:1035900000EE101AD4F81A2040EE410A00EE100A8C
:1035A00001EE102AB8EE400A21EE001A00EE101AC1
:1035B000002100EE401A80EE810A10EE102AC4F8B5
:1035C0000E20C4F8161099B224E000BFD4F80630DB
:1035D00000EE902A03EB810393ED001AD4F8123029
:1035E00000EE103AD4F80A3000EE810A03EB8103B2
:1035F000491CD3ED000AD4F8163089B230EE600AC7
:10360000F0EEC00A00EE103A30EE800A10EE103AEA
:10361000C4F816308842D9D800EE100A54F8161FA4
:10362000B8EE401A00EE901A80EE810A10EE100AF1
:1036300000EE102A206070BDE400002070B5044642
:10364000002524F8021B8E0025603046FCF798FE0A
:1036500060603046FCF794FEA060E560256160681C
:103660003146FCF7C9FFA0683146A41EFCF7C4FF31
:1036700004F11A00BDE870401021FCF79BBF000068
:1036800070B504462DED028BB0EE608A90F89C0078
:10369000F0EE408A000649D5606B00EE100A206CFF
:1036A00000EE900A9FEDFE1A60EE810AB4EEE00A89
:1036B000F1EE10FA3AD32068FA4A00EE100AB0EEA2
:1036C000C00A10EE101A914230DB216900EE100A98
:1036D00000EE901AF44930EE600AF0EEC00A00EEF7
:1036E000100AB0EEC01A80EE810A10EE100A88426D
:1036F0000ADD54F89D0F6168401C44F8040B41F149
:10370000000144F8A11904E00021C4F89D10C4F898
:10371000A110D4F89D20D4F8A1104FF4FA73002022
:103720009A1A884102D2012084F8A50004F1900081
:10373000FDF714FA10EE100A18EE101AC4F89400EF
:1037400018EE900A08EE101A206108EE900A216027
:1037500038EE680A10EE100AA061D4F8A61009B17C
:1037600020468847A06900EE100AB5EEC00AF1EEC7
:1037700010FA00EE100A01DCB1EE400AA16C00EE76
:10378000901AB4EEE00AF1EE10FA78DDD4F8982041
:10379000616804F16603E2B300EE101A116800EEEE
:1037A000901A70EE200A00EE100A20EE800A10EE49
:1037B000101A6162A16800EE101A516800EE901AAA
:1037C000D4F8941070EE200A00EE100A60EE800A21
:1037D00000EE101A20EE800A10EE105A2563B4F89D
:1037E0006450022D4CD900EE900A00EE101A1846D3
:1037F000FFF72AFEE06800EE900AD4F8980080688F
:1038000001EE100A70EE810A20EE200A10EE100A76
:103810004DE0FFE700EE901A00EE100A20EE800A5D
:1038200010EE101A00EE100A6162A16800EE901A04
:10383000D4F8941060EE800A00EE101A20EE800A90
:1038400010EE102A2263B4F86420022A0AD900EE8E
:10385000900A00EE101A1846FFF7F6FDE06800EE39
:10386000900AD1E700EE100AE06900EE900AE068E5
:1038700070EE600A00EE100A20EE801A11E016E1E8
:10388000E368926800EE103A00EE902A30EE201ABB
:1038900000EE100AE06900EE900A30EE600A21EEB8
:1038A000001A00EE101AC1EE000A10EE900AE06253
:1038B000D4F8AA1009B12046884794F89C1048070C
:1038C00021D5D4F89800B6EE000AE8B3A2684068A3
:1038D00000EE902A01EE100AA06970EE811A00EE47
:1038E000900AE06901EE100A70EE810A20EE800A6B
:1038F00061EE800AD4F8940000EE100A20EE800AEF
:1039000010EE100A2063880602D5204600F0DBFC8A
:1039100094F89C00800702D5204600F02DFD94F815
:103920009C20500627D5E06AE16D00EE900AD4F89D
:10393000940000EE100A60EE801A00EE901A00EE7D
:10394000100A30EE800A00E03AE081EE801AE36B64
:1039500000EE101A00EE903A60EE801A00EE101A97
:1039600000EE900A30EE200AC1EE800A31EE200A05
:1039700010EE100AE062D00702D0204600F059FD98
:10398000A06A00EE100A206B00EE900A30EE200ACA
:1039900010EE100AA062626A00EE100A00EE902A91
:1039A000E06A70EE800A00EE100A30EE800A10EE37
:1039B000100A606394F89C10C90611D4606B34E05F
:1039C000A06900EE900AE06901EE100AA06870EEAE
:1039D000810A60EE800A00EE100A60EE800A89E734
:1039E00000EE100AD4F89400A16D00EE900AA36BCB
:1039F00060EE201A00EE901A00EE100A30EE800AF7
:103A000000EE903A81EE801A00EE101A60EE801AF5
:103A100000EE101A00EE900A30EE200AC1EE800A85
:103A200031EE200A10EE100A606300EE900A206C5E
:103A300000EE100AF4EEC00AF1EE10FA00DD606349
:103A4000616B00EE100A00EE901AB1EE400AF4EE3F
:103A5000C00AF1EE10FA06D200EE100AB1EE400AEA
:103A600010EE101A616300EE102A00EE900AB4EE18
:103A7000E00AF1EE10FA00DD6062616A00EE100A01
:103A800000EE901AB1EE400AF4EEC00AF1EE10FA20
:103A90000DD200EE100AB1EE400A10EE100A05E059
:103AA0006F12833A17B7D1383333733F606220699E
:103AB0006061606BA063E16AE163A169E161216B10
:103AC000216200EE100ABDEC028B70BD70B5044699
:103AD00011EE100A0025A06410EE900A16466064EC
:103AE00010EE100A206411EE900A2560606012EE5C
:103AF000100AA06012EE900AE060256313EE100A2F
:103B00002566206513EE900A606514EE100AA06524
:103B100014EE900AE065A4F8641004F16600FFF763
:103B20008DFDC4F8905084F89C600020C4F89D007E
:103B3000C4F8A10084F8A5502566656370BD012016
:103B400000F048FDFBE710B5FDF78CFF02F070F9BF
:103B5000012803D0BDE8104001F09EBE10BD00005A
:103B600030B593B030216846FCF746FD14210CA80F
:103B7000FCF742FD1C480025016841F080510160BE
:103B8000006800F0805011901848016841F44041ED
:103B900001600068022400F4404011900120009070
:103BA000000401908001CDE906400A2008906420BD
:103BB000CDE9090404200B906846FEF7DDF808B152
:103BC00072B6FEE70CA90F2081E831004FF4805057
:103BD000CDE90F0503210CA8FDF7E2FF002801D075
:103BE00072B6FEE713B030BD4038024000700040AE
:103BF0000248016841F470010160704788ED00E0FF
:103C00000148FEF7C6BB000048030020F0B502687B
:103C10001F4B204C204D214E4FF0804C984207D036
:103C2000604505D0A04203D0A84201D0B04203D1E4
:103C300022F070074A683A43984210D060450ED08F
:103C4000A0420CD0A8420AD0B04208D0144CA042E6
:103C500005D0144CA04202D0134CA04203D122F450
:103C60004074CA6822434C6922F0800222438C6867
:103C7000C4620C688462984201D1096901630168D9
:103C800041F004010160012141610260F0BD0000CA
:103C9000000001400004004000080040000C00400B
:103CA00000400140004401400048014010B501F0CF
:103CB0001F030121046A99408C430462016A9A40FF
:103CC0001143016210BD10B5846842EA032224F456
:103CD0007F440A432243826010BD826822F0700252
:103CE0000A4342F0070181607047000030B5036A63
:103CF000026A22F0010202624268846924F07305BC
:103D00000C682C4323F002058B682B430A4DA84214
:103D10000BD123F00805CB6822F440722B434D6988
:103D200023F0040315438A692A4342608461496889
:103D30004163036230BD00000000014030B5026AFB
:103D4000036A23F010030362436884690D6824F456
:103D5000E64444EA05248D6822F0200242EA051276
:103D60000B4DA8420ED1CD6822F0800242EA051226
:103D70004D6923F4406343EA85038D6922F04002D4
:103D800043EA85034360846149688163026230BD10
:103D90000000014030B5036A026A22F480720262B8
:103DA0004268C46923F4007324F073050C682C4343
:103DB0008D6843EA05230C4DA8420ED1CD6823F44B
:103DC000006343EA05234D6922F4405242EA05129A
:103DD0008D6923F4806342EA05124260C461496838
:103DE000C163036230BD00000000014030B5046AC9
:103DF000026A22F4805202624268C3690D6823F4A9
:103E0000E64343EA05238D6824F4005444EA05346C
:103E1000064DA84204D14D6922F4804242EA85123F
:103E20004260C36149680164046230BD0000014022
:103E300010B5036A046A24F001040462846924F062
:103E4000F00444EA021423F00A020A438461026285
:103E500010BD10B5036A046A24F01004046284697A
:103E600023F0A00324F4704444EA023243EA01112F
:103E70008261016210BD10B5806B0021C185FEF723
:103E8000B5FC10BD70B5846B2068406994F8411092
:103E9000C0F3C0100025212904D118B1E5842046C3
:103EA00000F0B4F82068406994F84210C0F3801024
:103EB000222904D118B1E585204600F080F8606C15
:103EC00040F0100060642046FEF790FC70BD10B515
:103ED0000146806B096809684FF00002C9052ED4BD
:103EE000C28501680C3151E8003F23F4807341E83A
:103EF0000034002CF5D10168143151E8003F23F063
:103F0000010341E80034002CF5D10168143151E877
:103F1000003F23F0400341E80034002CF5D120217C
:103F200080F84210016B012909D101680C3151E878
:103F3000003F23F0100341E80034002CF5D1426328
:103F4000016B012902D0FEF737FE10BD818DFEF70F
:103F500035FC10BD10B5806B01214163016B012957
:103F600002D0FEF72AFE10BD818D4908FEF726FC1F
:103F700010BD10B50146806B09680968C90516D4E3
:103F80000021C1840168143151E8002F22F0800221
:103F900041E80023002BF5D101680C3151E8002FD6
:103FA00042F0400241E80023002BF5D110BDFEF79E
:103FB00047FE10BD10B5806BFEF743FE10BD0168D3
:103FC0000C3151E8002F22F4907241E80023002BBD
:103FD000F5D10168143151E8002F22F0010241E8C7
:103FE0000023002BF5D1016B012909D101680C31A7
:103FF00051E8002F22F0100241E80023002BF5D1F8
:10400000202180F8421000210163704701680C31C3
:1040100051E8002F22F0C00241E80023002BF5D127
:10402000202180F84110704708B590F842102229ED
:1040300001D0022008BD82684FF480539A4201D11A
:10404000016921B1816A9A421BD04AB10AE0026833
:10405000816A5268C2F308020A80816A891C08E0FA
:10406000026972B10268526802F07F020A70816AC6
:10407000491C8162C18D491E0904090CC18503D008
:104080001BE002685268F1E70168CA6822F020026A
:10409000CA600168CA6822F48072CA6001684A690D
:1040A00022F001024A61202180F842100021416380
:1040B000026B012A03D0FEF77FFD002008BD0163DB
:1040C00001680C3151E8002F22F0100241E8002372
:1040D000002BF5D101680A68D20602D50A68496842
:1040E0000091818DFEF76AFBE7E7000070B504469A
:1040F00000680169E26821F44051114301612169BE
:10410000A068E26908436169114308432168CA68ED
:1041100049F20C639A430243CA6020684169A2696C
:1041200021F440711143416131492068884202D035
:104130003049884202D1FDF7DDFD01E0FDF7CAFDFF
:10414000E2690023192164253226B2F5004F626826
:1041500028D0A0FB0101930F9200FCF767F90146FC
:10416000B0FBF5F06FF01802504301EB800006EB56
:104170000010B0FBF5F000F0F002B1FBF5F002EB3F
:104180000012B1FBF5F06FF01803584301EB80000B
:1041900006EB0010B0FBF5F000F00F0021681044B2
:1041A000886070BDA0FB010192185B41FCF73EF9ED
:1041B0000146B0FBF5F00201B1FBF5F06FF018031A
:1041C000584301EB800006EBC000B0FBF5F000F0B7
:1041D000F80002EB4002B1FBF5F0584301EB800020
:1041E00006EBC000B0FBF5F000F00700D6E70000DA
:1041F000001001400014014038B5816204468285F8
:10420000002013466064222284F84220E56B1F4A96
:10421000EA63E56B1E4A2A64E56B1E4AEA64E26BB8
:1042200010650A462168E06B091DFDF7F1F830B111
:1042300010206064202084F84200012038BD2068EE
:10424000016840680090206948B120680C3050E84F
:10425000001F41F4807140E80012002AF5D1206867
:10426000143050E8001F41F0010140E80012002A1C
:10427000F5D12068143050E8001F41F0400140E8BB
:104280000012002AF5D1002038BD0000CF3E000802
:10429000553F0008853E00080148FEF7A9BA000016
:1042A00090030020FEE70907090E002804DB00F157
:1042B000E02080F80014704700F00F0000F1E020CB
:1042C00080F8141D70478169826A00EE101A00EEB2
:1042D000902A20EE200AB5EEC00AF1EE10FA4ADD6F
:1042E00000EE101AB5EEC00AF1EE10FA00EE101A48
:1042F00001DCB1EE400A436D00EE903AB4EEE00A04
:10430000F1EE10FA37D9026D00EE903A00EE102A65
:1043100070EE200A00EE101AB5EEC00AF1EE10FAA7
:1043200000EE101A01DCB1EE400AF4EEC00AF1EE24
:1043300010FA1EDB00EE101A00EE902AB5EEC00A4D
:10434000F1EE10FA00EE101A01DCB1EE400A016B3A
:1043500070EEC00A00EE103A30EE801A00EE102A1D
:10436000C1EE000A00EE101A20EE800A10EE101ABC
:1043700000E000210163704770B50446D0F8985002
:1043800000F16602B0F864300169D0F89400D5B14C
:10439000022B36D900EE101AF1EE400A00EE100A98
:1043A0001046FFF751F8E06800EE900AD4F8980044
:1043B000806801EE100A70EE810A00BF20EE200A2C
:1043C00010EE100A1BE0022B0CD900EE101AF1EED1
:1043D000400A00EE100A1046FFF736F8E06800EEDB
:1043E000900AEBE7626900EE101A00EE902AE1688D
:1043F00070EEC00A00EE101A20EE801A12E0E062A1
:1044000070BDE26800EE102AAA6800EE902A626988
:1044100030EE201A00EE902A00EE101A30EEC00A9C
:1044200021EE001A00EE100AC1EE000A10EE900A0A
:10443000E5E7026B816A00EE902A00EE101A426AEC
:1044400070EE200A01EE102A00EE101AC26A31EE58
:10445000001A00EE102A31EE000AB5EEC00AF1EEA5
:1044600010FA01DCB1EE400A026C01EE102A0022C3
:10447000B4EEC10AF1EE10FA0CDD836900EE101AF9
:1044800001EE103A21EE000AB5EEC00AF1EE10FA84
:1044900000DD0263416C00EE101AB4EEE00AF1EEAA
:1044A00010FA01D20263816200EE101AB1EE400AE6
:1044B000B4EEE00AF1EE10FA07DD00EE101A026326
:1044C000B1EE400A10EE101A81627047FDF7D2FA81
:1044D000FFF746FBFEF770FEFEF728FEFEF78AFEAA
:1044E000FEF794FFFEF7DAFEFEF72CFFFEF7A2FEC2
:1044F000FEF7EAFD142208490848FEF739F900F0F2
:1045000001FE6420FCF74CFB00F072F8FEF73CFE65
:1045100000F080F8FEE70000A801002090030020D2
:1045200000F028FD322000F055F8F9E700239FED58
:10453000060A514305E000BF00EB83025B1C82EDDD
:10454000000A9942F8DC7047000000002DE9F043B2
:104550009146DDE907640F4680461D46224619460E
:104560004846FFF7E3FF002223E00021DFED130AB6
:104570001CE000BFB0EE600A00200EE002FB060C5B
:1045800008EB8C0393ED001A00FB041307EB830385
:10459000401CD3ED001A01EE210AB042EEDB02FB13
:1045A000041309EB8300491C80ED000AA142E1DB02
:1045B000521CAA42D9DBBDE8F083000000000000D5
:1045C000012202490248FCF7F9BC0000200100204A
:1045D000BC01002010B5EFF3058111B16FF00504A7
:1045E00003E0002408B100F09FFF204610BD00004A
:1045F000EFF3058010B16FF00500704704480168C3
:1046000011B14FF0FF307047012101600020704769
:104610007801002010B5EFF3058010B16FF00500B0
:1046200010BD08480168012902D04FF0FF3010BDCD
:10463000054A002182F8141D0221016000F0DCFF10
:10464000002010BD780100200BE000E02DE9FF41C3
:104650004FEA01034FF00005EFF30581039549BBD5
:1046600040B38027182100244AB3166806B13446A7
:1046700096691EB13146761E382E02D21679F6079B
:1046800003D0002004B0BDE8F081566906B1B70838
:10469000D2F808C0BCF1000F0DD0D5685C2D18D33E
:1046A00012693AB136B18DE806103A46214601F05A
:1046B00094FB03900DE0D6685EB912694AB903AA6B
:1046C000CDE90012BAB2214601F05AFB012800D010
:1046D00003950398D6E700002DE9F041134C0F46EF
:1046E0000546E6682068001D00F0EAFD681C07D159
:1046F00037B12168BDE8F0410D48091D00F030BE1A
:1047000020683544B5424560216805D2A06BBDE8FC
:10471000F041091D00F00CBE606B091D00F008FEA1
:10472000A06A854200D2A562BDE8F0812801002080
:10473000440B00202DE9F041054600F01DFE2D4CF4
:10474000A068401CA06020682B4F10B1606930B396
:104750002BE02560A068012827D1002606EB860003
:1047600007EB800000F0D6FD761C382EF6D32348E8
:1047700000F0D0FD2148143000F0CCFD1F48283057
:1047800000F0C8FD1D483C3000F0C4FD1B4850300F
:1047900000F0C0FD194860631430A06305E0206894
:1047A000E96AC06A884200D82560606A401C60627D
:1047B0006864E86A2169884200D9206100EB8000C2
:1047C00007EB8000291D00F0CBFD00F0F5FD6069CE
:1047D00000280CD02068E96AC06A884207D20849DC
:1047E0004FF080500860BFF34F8FBFF36F8FBDE86D
:1047F000F08100002801002094060020F40A002027
:1048000004ED00E038B500F0B7FD104C2068C8B9E1
:104810000F4800F07FFD0E48143000F07BFD0C487F
:10482000E060143020610A4B0020F03B009003F15F
:10483000500210210A2001F045F8206010B105A1B6
:1048400000F03CFEBDE8384000F0B6BD6401002039
:10485000480C0020546D72510000000030B4026C0E
:104860000B46002A0BD0C1681144C1608468A14284
:1048700001D30168C16030BC1846FBF74EBE30BCA6
:1048800070472DE9F041856B174604460026026CFF
:1048900082B1C7B1E068FBF740FEE168206C091AFD
:1048A000E1602268914202D2A168081AE060022FFA
:1048B00016D017E02068A8B9A06801F031FB0646C1
:1048C0000020A0600EE06068FBF727FE216C6068A6
:1048D00008446060A168884204D32068606001E0F9
:1048E00005B16D1E6D1CA5633046BDE8F08110B5A5
:1048F000044690F8590058B101280CD002280FD076
:10490000502080F31188BFF34F8FBFF36F8FFEE706
:10491000206B00F065FD2046BDE8104000F060BD52
:1049200010BD000010484FF47051420706D0C01D62
:104930000D4920F00700411AC1F570510B4A0023C0
:104940000144C2E900030839183A21F00701116057
:104950004B600B600B1AC0E9001393604FF00040EE
:10496000536050617047000028130020940100201C
:10497000144E154CA6F29C474FF08058DFF84C902F
:1049800012E000BF00F0F8FCF068C568281D00F0D8
:1049900097FCA068401EA0606068401E606000F048
:1049A0000BFD2846FFF7A3FF60680028EAD13868AE
:1049B0000128F9D9C9F80080BFF34F8FBFF36F8F7B
:1049C000F2E70000300B00202801002004ED00E099
:1049D00070B51D46049C51B1C4F80020C4E90F0114
:1049E0000121204600F0A2FF84F84C5070BD2460E5
:1049F000F4E700002DE9F05F8846DDE90B941546E9
:104A0000834691009A460A9EA522206BFBF7CAFDB9
:104A10006FF00301206B01EB8501084420F00707CC
:104A2000780707D0502080F31188BFF34F8FBFF372
:104A30006F8FFEE70025B8F1000F0FD05FF0000088
:104A4000221818F8001082F8341018F8001011B16C
:104A5000401C1028F4D384F8435001E084F834500B
:104A6000382E00D33726E662C4E91365201D00F016
:104A70005CFC04F1180000F058FC2461C6F1380019
:104A80006462A061656584F85850524659463846BC
:104A900000F05AFA2060B9F1000F01D0C9F80040C7
:104AA000BDE8F09F30B5114900E011460A68824226
:104AB000FBD34B685C18844203D1406818444860BB
:104AC000084643681C18944209D1084C183C2468D5
:104AD000A24209D052681A4442600A681268026011
:104AE000814200D0086030BD0460F9E794010020E5
:104AF00070B5002441600B4D0061914206D8D11A77
:104B00008269914206D2011D286907E09A4203D2C8
:104B1000994201D3012403E0011DE86800F008FC7C
:104B2000204670BD6401002010B5044600F024FC4E
:104B3000A06B28B15FF0000400F03EFC204610BDE1
:104B40000124F9E730B589B03C4D6EE004980028A7
:104B500006DADDE90601059A90470498002864DB2F
:104B6000069C606910B1201D00F0AAFB03A800F0AC
:104B7000D7F8024604980A2857D2DFE800F0050566
:104B8000052D334A05052D3394F8280040F0010027
:104B900084F828000599A069059B01442046FFF789
:104BA000A7FF68B3216A2046884794F82800400789
:104BB0003BD5002000900598A169002342181946B2
:104BC000204601F0B7FAD8B9502080F31188BFF31E
:104BD0004F8FBFF36F8FFEE714F8280F20F001000E
:104BE000207022E094F8280040F0010084F82800AA
:104BF0000598A06128B1811813462046FFF778FF79
:104C000013E0502080F31188BFF34F8FBFF36F8FF5
:104C1000FEE794F82800810703D4204600F0E0FB6B
:104C200003E020F0010084F82800002204A928688D
:104C300000F0D0FF002889D109B030BD6401002008
:104C40002DE9FC410F46054600F01AFD01A800F0D1
:104C500067F80446019818B101F0DAF9BDE8FC8163
:104C6000254EAFB130690068D0B30027291B3A4602
:104C7000306800F037FC01F0CBF90028EED11F4975
:104C80004FF080500860BFF34F8FBFF36F8FE5E7A1
:104C9000A542EBD801F0BCF9F0682746C068C468AB
:104CA000201D00F00DFB94F82800410719D5A069DC
:104CB0002B4641193A462046FFF71AFFA8B10020BB
:104CC0000346014600902A46204601F033FA60B9B7
:104CD000502080F31188BFF34F8FBFF36F8FFEE733
:104CE00007E020F0010084F82800216A2046884768
:104CF000B4E70127BAE700006401002004ED00E0FA
:104D00000648416B096829B1416BC968C96849689F
:104D1000816270474FF0FF31FAE700002801002060
:104D200070B5054601F092F8064E0446B06884421C
:104D300003D200F009F8012000E00020286020469E
:104D4000B46070BD64010020F8B5194D20E0C06862
:104D5000C4680668201D00F0B3FA216A204688471F
:104D600094F82800400713D5A0693044B04206D912
:104D700024616060211DE86800F0DAFA08E0002094
:104D80000346014600903246204601F0D3F938B17F
:104D9000E86801680029DAD12969C5E90310F8BD7E
:104DA000502080F31188BFF34F8FBFF36F8FFEE762
:104DB0006401002008484068401C4FF0500080F318
:104DC000118804D0BFF34F8FBFF36F8FFEE7BFF39F
:104DD0004F8FBFF36F8FFEE79C010020074CE06808
:104DE000016841B1C0680021D0F80000FFF728FF3A
:104DF000FFF7A8FEF3E701210020F7E76401002098
:104E00002DE9F041044600F0B7FA94F9455004F159
:104E1000240609E0606A48B1304601F0C1F808B1E3
:104E200000F0B0FB6D1E6DB2002DF3DC4FF0FF36CD
:104E300084F8456000F0C0FA00F09EFA94F94450FE
:104E400004F1100709E0206948B1384601F0A8F8DC
:104E500008B100F097FB6D1E6DB2002DF3DC84F8F5
:104E60004460BDE8F04100F0A7BA00002DE9F04130
:104E70000546002700F004FC324E306808B9FFF701
:104E800051FD706905424ED1C5B3083568070ED093
:104E900005F00700C0F108000544680707D050205E
:104EA00080F31188BFF34F8FBFF36F8FFEE72DB3F1
:104EB0007068854237D82348183001460C6801E0F5
:104EC00020460C466168A94202D221680029F7D128
:104ED00031688C4227D00768216801606068083714
:104EE000411B10290FD96019420708D0502080F3C8
:104EF0001188BFF34F8FBFF36F8FFEE713E0416060
:104F00006560FFF7CFFD61687068401A7060B26835
:104F1000904200D2B060706901430020C4E90001F2
:104F2000F068401CF06001F073F8780707D050205B
:104F300080F31188BFF34F8FBFF36F8FFEE73846C2
:104F4000BDE8F0817C01002010B5031F4FF0807494
:104F50001C601B1F21F001011960191F044B0B601D
:104F600014390A60091F6FF0020244380A6010BD4C
:104F7000B54D00081CB52448FEF78CF80420012428
:104F8000CDE90004204A034614321F491F48FFF7A9
:104F9000DDFA1D481C4A1E4990ED020A1C482832C1
:104FA00080ED010A0220CDE90004034617484C3089
:104FB000FFF7CCFA1448154C28302C3C90ED000A31
:104FC000154884ED090ADFED130A90ED000A134835
:104FD000FEF756FB114984ED080A0020486300F0F3
:104FE00003F900F01FF80E49074834300B680268D7
:104FF0005A630B6842689A630B688268DA630968CF
:10500000C06808641CBD00000C060020840000205D
:10501000180100200000000000010020B004002062
:1050200048030020354A364902F12000D2ED030A38
:1050300091ED090A30EE601AD1ED080A31EE201A1E
:10504000BDEEC11A80ED001A92ED011A31EE401A40
:1050500031EE201ABDEEC11A80ED011A92ED021A4E
:1050600031EE001A31EE601ABDEEC11A80ED021A5F
:1050700092ED001A0022B1EE411A31EE400A30EEF4
:10508000600ABDEEC00A80ED030A91ED0A0AB1EE96
:10509000401AFDEEC00AFDEEC11A00BF50F82230E2
:1050A00002EE103AB8EEC22AB4EEC02AF1EE10FABF
:1050B00002DD10EE903A0AE002EE103AB8EEC22A93
:1050C000B4EEC12AF1EE10FA03D211EE903A40F894
:1050D0002230521CD2B2042AE0D302680B691A446F
:1050E000026042684B691A44426082688B691A44C4
:1050F0008260C268C9691144C160704720060020FF
:105100005800002010B52E482DED048BFDF79CF8BB
:1051100000212B48FDF7D2FA04212948FDF7CEFAE9
:1051200000212848FDF7CAFA04212648FDF7C6FAEF
:1051300008212448FDF7C2FA0C212248FDF7BEFAE7
:10514000FFF73EFA9FED208A9FED209ADFED238A3C
:1051500011220521F0EE484AB0EE494AF0EE483AF5
:10516000B0EE483AF0EE482A9FED192ADFED191A01
:10517000B0EE481ADFED180AB0EE680A1848FEF7DC
:10518000A5FC1848F0EE484AB0EE494AD0ED002A96
:10519000F0EE483AB0EE483AB0EE481AF0EE680A3F
:1051A000B0EE680ABDEC048BF0EE621A11220C48D6
:1051B0000521BDE81040B0EE612AAE30FEF786BC96
:1051C0000003002048030020000000008A9B503AA2
:1051D0006F12833A000048430000C84200401C465A
:1051E000B0040020580000203248334BDFED331A62
:1051F00090ED0A0A90ED012A0021B1EE401A00BF9D
:1052000003EB8102D2ED000A60EE822AC2EEA10A0F
:10521000F0EE402AC2ED000AF4EEE20AF1EE10FAD6
:1052200004DDF0EE400AC2ED000A06E0F4EEC10A29
:10523000F1EE10FA01D282ED001A491CC9B204291C
:10524000DED3D0ED080A90ED021A1A4960EE810A09
:1052500080EEA11A80ED081AD1ED0A0AB4EEC01A48
:10526000F1EE600AF1EE10FA02DD80ED080A06E0C8
:10527000B4EEE01AF1EE10FA01D2C0ED080A90ED9A
:10528000091A90ED032A21EE022A82EE211A80EDFE
:10529000091AB4EEC01AF1EE10FA02DD80ED090A27
:1052A0007047B4EEE01AF1EE10FAF9D2C0ED090A37
:1052B00070470000580000202006002000401C46D7
:1052C000D0E9013201699A60D0E901235A604A6845
:1052D000824201D182684A60002202610868401E51
:1052E0000860086870470000034B036003F15C002E
:1052F0000860802010607047700C0020044B036031
:1053000003F15C0008604FF480701060704700008B
:10531000CC0E002000F108014FF0FF32C0E901126D
:10532000C160016100210160704700210161704787
:1053300030B50B685A1C02D000F1080202E0026985
:1053400004E02246546825689D42FAD953684B60B0
:1053500099608A60516008610168491C016030BD34
:1053600042684A6093688B609368596091600861F5
:105370000168491C01607047502080F31188BFF319
:105380004F8FBFF36F8F0A494868401C486001285F
:105390000CD10848006810F0FF0F07D0502080F3B0
:1053A0001188BFF34F8FBFF36F8FFEE77047000088
:1053B0009C01002004ED00E00849486828B1401E27
:1053C000486001D180F311887047502080F3118824
:1053D000BFF34F8FBFF36F8FFEE700009C010020EB
:1053E00070B500282AD0164DA0F1080460686969DC
:1053F000084207D1502080F31188BFF34F8FBFF3CD
:105400006F8FFEE722683AB1502080F31188BFF316
:105410004F8FBFF36F8FFEE78843606000F030F975
:1054200060686968084468602046FFF73BFB2869AC
:10543000401C2861BDE8704000F0EABD70BD00006E
:105440007C0100204FF0E0200021016181610549CD
:105450004FF47A720968B1FBF2F1491E41610721EC
:10546000016170471400002010B5FAF765FF11497B
:1054700010280ED300F1E02090F8F0030A78904253
:1054800007D2502080F31188BFF34F8FBFF36F8F87
:10549000FEE709480068896800F4E060884207D99F
:1054A000502080F31188BFF34F8FBFF36F8FFEE75B
:1054B00010BD00009C0100200CED00E010B5084B71
:1054C000002200BF53F832401CB1521C082AF9D305
:1054D00010BD43F8321003EBC201486010BD00005C
:1054E0005406002070B515460E460446FFF744FFEB
:1054F00094F944100020491C01D184F8440094F927
:105500004510491C01D184F84500FFF755FFA06BF9
:1055100028B92A46314604F1240000F051F820460B
:10552000BDE87040FFF76CBC10B5020014D00F4806
:10553000006B38B1502080F31188BFF34F8FBFF359
:105540006F8FFEE700F09CF800211046FFF7C4F8CB
:1055500000F05EFD002807D105494FF0805008603B
:10556000BFF34F8FBFF36F8F10BD000028010020E5
:1055700004ED00E002490A6A0260C96841607047B0
:105580002801002001490120C8617047280100203E
:1055900010B50C4650B1094909681831FFF7C8FE2B
:1055A0002046BDE810400121FFF796B8502080F357
:1055B0001188BFF34F8FBFF36F8FFEE728010020E4
:1055C00070B514460D4668B10A4909681831FFF7ED
:1055D000C7FE0CB14FF0FF3521462846BDE87040AC
:1055E000FFF77AB8502080F31188BFF34F8FBFF3D5
:1055F0006F8FFEE72801002030B587B000240394A8
:1056000005AA04A903A80494FFF76EFEDDE90301CF
:105610000094CDE90110002315A11748059A00F068
:10562000DCFB164D0028E8621FD000F053FD012876
:1056300009D0401C19D1502080F31188BFF34F8F3F
:10564000BFF36F8FFEE7502080F31188BFF34F8FB9
:10565000BFF36F8F4FF0FF30A86201206861EC60EC
:1056600007B0BDE8304000F09DB807B030BD000085
:1056700049444C4500000000714900082801002001
:105680000248016B491C016370470000280100209B
:10569000164810B5016B11B10121C16110BD002187
:1056A000C1610169124A01E0B9B1491E01EB8103F0
:1056B00052F82330002BF7D001EB810302EB830279
:1056C00002F1080453685B685360A34201D15B6830
:1056D0005360DA680260016110BD502080F31188C8
:1056E000BFF34F8FBFF36F8FFEE70000280100204C
:1056F0009406002002782949A52A0CD14278D0F8D6
:10570000023042EA03224A614279D0F8060042EAB6
:10571000002048608861C8699FED211A401CC8615B
:1057200091ED040AD1ED060A00200122B4EE600AD0
:10573000F1EE10FA01D00870C86102D1CB69062BD6
:1057400004D80B78012B01D023B105E081ED021ABA
:105750000A7001E0C1ED020AD1ED031A91ED050ACC
:105760000E4BF4EE401A2033F1EE10FA01D04870DF
:10577000C86102D1C869062804D84878012801D038
:1057800020B105E083ED001A4A7001E083ED000AC4
:1057900081ED030AC1ED040A70470000F800002003
:1057A000000000001CB537480168374A914207D114
:1057B000502080F31188BFF34F8FBFF36F8FFEE748
:1057C00000683149491E884207D1502080F3118872
:1057D000BFF34F8FBFF36F8FFEE72C49087801901E
:1057E000FF20087008788DF800009DF800009DF8F3
:1057F000002000F0F000904207D0502080F3118884
:10580000BFF34F8FBFF36F8FFEE79DF80000204C72
:1058100000F0500020700720A06005E09DF80020F7
:1058200052008DF80020401E9DF800201206F5D48D
:10583000A060032807D0502080F31188BFF34F8F5A
:10584000BFF36F8FFEE74FF44070A06001980870BF
:105850000C482030016841F470010160016841F09A
:1058600070410160FFF7EEFD00206060FAF72CFD4B
:105870000848016841F040410160FAF711FD00203D
:105880001CBD000000ED00E071C20F4100E400E02B
:105890009C01002034EF00E010B5502080F3118807
:1058A000BFF34F8FBFF36F8F00F0D6FA18B10449E2
:1058B0004FF080500860002080F3118810BD000078
:1058C00004ED00E038B5049D18B153B1CAB181B1FF
:1058D00020E0502080F31188BFF34F8FBFF36F8F0C
:1058E000FEE7502080F31188BFF34F8FBFF36F8F17
:1058F000FEE7502080F31188BFF34F8FBFF36F8F07
:10590000FEE739B1502080F31188BFF34F8FBFF30A
:105910006F8FFEE750241C46012384F846302B4647
:105920000094FFF755F8204638BD000070B50D46CD
:10593000040025D0FFF720FDD4E90F20216802FBE9
:105940000011A1600021A163216861600A46D4E9C9
:105950000F01401E00FB0121E16021464FF0FF30A6
:1059600001F8440F487004F110008DB1FFF7D2FC2C
:1059700004F12400FFF7CEFCFFF71EFD012070BDEF
:10598000502080F31188BFF34F8FBFF36F8FFEE776
:1059900021690029F0D000F003FB0028ECD0044975
:1059A0004FF080500860BFF34F8FBFF36F8FE3E776
:1059B00004ED00E02DE9FF4782B01D468A464FF016
:1059C0000008040003D0BAF1000F08D011E0502005
:1059D00080F31188BFF34F8FBFF36F8FFEE7206C0A
:1059E00038B1502080F31188BFF34F8FBFF36F8F12
:1059F000FEE7022D0AD1E06B012807D0502080F38A
:105A00001188BFF34F8FBFF36F8FFEE700F010FADE
:105A10003F4F4FF000094FF0805648B9049838B115
:105A2000502080F31188BFF34F8FBFF36F8FFEE7D5
:105A3000FFF7A2FCA06BE16B884207D3022D05D0D3
:105A40000498D0B1B8F1000F1AD01EE02A46514692
:105A50002046FEF716FF616A19B104F1240000F038
:105A60009FFA20B13E60BFF34F8FBFF36F8FFFF7F8
:105A7000A3FC012006B0BDE8F087FFF79DFC22E003
:105A80006846FFF777FD4FF00108FFF795FCFFF739
:105A9000F7FDFFF771FC94F94400401C01D184F834
:105AA000449094F94500401C01D184F84590FFF7DB
:105AB00083FC04A9684600F029F930B12046FFF7BD
:105AC0009FF900F0A5FA0020D4E7FFF755FCA06B82
:105AD000E16B884213D1FFF76FFC04F110000499C9
