:020000040800F2
:1000000058B7002029030008FB3A00080B35000808
:10001000F93A0008510600088B6B00080000000048
:10002000000000000000000000000000690200085D
:100030000509000800000000C5020008D9430008B7
:100040004303000843030008430300084303000878
:100050004303000843030008430300084303000868
:100060004303000843030008430300084303000858
:100070007D0700084303000843030008430300080A
:100080004303000843030008430300084303000838
:100090005506000843030008430300084303000813
:1000A0004303000843030008430300084303000818
:1000B0004303000843030008430300084303000808
:1000C00043030008430300084303000843030008F8
:1000D00043030008B14B000843030008BD4B000870
:1000E00043030008430300084303000843030008D8
:1000F00043030008430300084303000843030008C8
:1001000043030008430300084303000843030008B7
:1001100043030008430300084303000843030008A7
:1001200043030008890700089507000843030008F7
:100130004303000843030008430300084303000887
:10014000610600084303000843030008353D00082A
:100150004303000843030008A1070008654C00089A
:100160004303000843030008430300084303000857
:100170004303000843030008430300080000000095
:10018000430300084303000800F002F800F05CF8A5
:100190000AA090E8000C82448344AAF10107DA45E2
:1001A00001D100F051F8AFF2090EBAE80F0013F0D8
:1001B000010F18BFFB1A43F00103184760900000BD
:1001C000809000000A444FF0000C10F8013B13F03F
:1001D000070408BF10F8014B1D1108BF10F8015BA0
:1001E000641E05D010F8016B641E01F8016BF9D193
:1001F00013F0080F1EBF10F8014BAD1C0C1B09D1EA
:100200006D1E58BF01F801CBFAD505E014F8016B5B
:1002100001F8016B6D1EF9D59142D6D370470000ED
:100220000023002400250026103A28BF78C1FBD8FF
:10023000520728BF30C148BF0B6070471FB508F098
:100240005FFE1FBD10B510BD00F0CDF91146FFF7E0
:10025000F5FF07F065FC00F0EBF903B4FFF7F2FFE0
:1002600003BC00F0EFF900002C4B19680868B0E8F7
:10027000F04F80F30988BFF36F8F4FF0000080F3D9
:10028000118870470000000008480068006880F38B
:1002900008884FF0000080F3148862B661B6BFF39F
:1002A0004F8FBFF36F8F00DF00BF00BF08ED00E08E
:1002B000DFF80C00016841F470010160704700BF75
:1002C00088ED00E0EFF30980BFF36F8F134B1A68DE
:1002D0001EF0100F08BF20ED108A20E9F04F1060CB
:1002E00009B44FF0500080F31188BFF34F8FBFF374
:1002F0006F8F08F06DFB4FF0000080F3118809BC90
:1003000019680868B0E8F04F1EF0100F08BFB0EC95
:10031000108A80F30988BFF36F8F70474004002074
:10032000EFF30580704700000948804709480047FF
:10033000FEE7FEE7FEE7FEE7FEE7FEE7FEE7FEE795
:10034000FEE7FEE704480549054A064B70470000F2
:1003500085440008890100085877002058B700201C
:10036000589700205897002053EA020C00F069804B
:100370002DE9F04B4FF00006002B1FBFB3FA83F5B9
:1003800003FA05F424FA05F65E4012BF1643B2FAEA
:1003900082F502FA05F4C5F120051EBF22FA05FC1C
:1003A00044EA0C04203556EA044C4FEA144418BFC2
:1003B000641C4FF000084FF00009904271EB030CF1
:1003C00039D3002919BFB1FA81F701FA07F6B0FA5B
:1003D00080F700FA07F6C7F120071EBF20FA07FCD6
:1003E00046EA0C062037B6FBF4FCA7EB0507103FE6
:1003F00007F01F0BCBF120060CFA0BFB2CFA06F6CC
:1004000044BFB3460026202FA4BF5E464FF0000B2A
:100410005BEA060C08BF4FF0010B19EB0B09ABFBB5
:10042000027C48EB0608C01B06FB02CC0BFB03CC8E
:1004300071EB0C01C1E70B46024641464846BDE858
:10044000F08B13B54FF000004FF00001AFF30080C8
:10045000BDE81C407047032A40F2308010F0030CC6
:1004600000F0158011F8013BBCF1020F624498BF07
:1004700011F801CB00F8013B38BF11F8013BA2F1A4
:10048000040298BF00F801CB38BF00F8013B11F01F
:10049000030300F02580083AC0F0088051F8043BBF
:1004A000083A51F804CBA0E80810F5E7121D5CBF2C
:1004B00051F8043B40F8043BAFF30080D20724BF5F
:1004C00011F8013B11F801CB48BF11F8012B24BFF3
:1004D00000F8013B00F801CB48BF00F8012B704742
:1004E00010B5203AC0F00B80B1E81850203AA0E8CF
:1004F0001850B1E81850A0E81850BFF4F5AF5FEA03
:10050000027C24BFB1E81850A0E8185044BF18C9B5
:1005100018C0BDE810405FEA827C24BF51F8043B5C
:1005200040F8043B08BF7047D20728BF31F8023BB0
:1005300048BF11F8012B28BF20F8023B48BF00F844
:10054000012B70474FF000020429C0F0128010F018
:10055000030C00F01B80CCF1040CBCF1020F18BF9F
:1005600000F8012BA8BF20F8022BA1EB0C0100F032
:100570000DB85FEAC17C24BF00F8012B00F8012B05
:1005800048BF00F8012B70474FF0000200B513463A
:1005900094469646203922BFA0E80C50A0E80C50A3
:1005A000B1F12001BFF4F7AF090728BFA0E80C5054
:1005B00048BF0CC05DF804EB890028BF40F8042B4D
:1005C00008BF704748BF20F8022B11F0804F18BFBA
:1005D00000F8012B7047704770477047004870471C
:1005E000F476002070477546FFF7F8FFAE46050029
:1005F0006946534620F00700854618B020B5FFF73E
:10060000A1FEBDE820404FF000064FF000074FF07C
:1006100000084FF0000B21F00701AC46ACE8C00920
:10062000ACE8C009ACE8C009ACE8C0098D46704729
:1006300010B50446AFF300802046BDE81040FFF738
:100640000CBE000001491820ABBEFEE726000200E8
:10065000FEE70000014800F0FCBA00001C08002082
:10066000014800F0F6BA00004408002038B50E4CEE
:100670004FF4007525600025A560E560082525611B
:100680000A4C050A25706070080AA070E170100A13
:1006900020716271180AA071E3716B46224602490B
:1006A000034800F077F938BDD80B00203100002056
:1006B0001C08002038B50E4C4FF4FF75256000254E
:1006C000A560E560082525610A4C050A2570607063
:1006D000080AA070E170100A20716271180AA071F6
:1006E000E3716B4622460249034800F053F938BDD6
:1006F000D80B0020310000201C08002004284FF0F7
:10070000000070470020704710B5002204490548DA
:1007100004F004FD0449034804F0F2FC002010BD7D
:10072000F0670020145B0020F05F002010B5044645
:10073000204608F0B3F92146034804F0E1FC0248E2
:1007400004F0AEFC002010BD145B002000207047B8
:1007500010B50A460849D1F8BC12D1F81412002984
:1007600001D0012010BD0146034804F0D7FCBDE8CC
:100770001040014804F06ABD145B0020014800F0FD
:100780000BBE0000940A0020014800F005BE0000E6
:10079000F40A0020014800F0FFBD0000D409002049
:1007A000014800F0F9BD0000340A00200168182358
:1007B000CAB2103AB2FBF3F2054B6FF30901032AF8
:1007C0009B5CC36500D9091D816508467047000020
:1007D000B491000810B5014600208B698A6A4FF079
:1007E000C07453B1B3F5005F15D072B1012A0CD0BB
:1007F000022A0AD0032A09D104E01AB1012A06D03C
:10080000022A03D1C96AC90100D5012010BDC96AF5
:10081000A142FAD010BD002AF7D0012AF2D0022A54
:10082000F3D0032AF3D010BD30B50468256825F451
:1008300080252560046863608368402B036803D0CB
:1008400099600068C26030BD9A600068C16030BDC8
:10085000074808B540680090014606480269914281
:1008600002D2C168491CC1600099016108BD000045
:10087000001000E0F003002000B50E492DED028BC2
:1008800081B0496800910168009A511A00EE101A6F
:100890000949F8EE400A91ED000A0260B8EE400AFC
:1008A00080EE808AFFF7D4FF01B0B0EE480ABDECBD
:1008B000028B00BD001000E0F00300200D490A6823
:1008C00042F080720A600C4900224A600B6843F0D3
:1008D00001030B6009494FF47A734843B0FBF3F30B
:1008E0000749C1E90003054BB0FBF3F0C1E902027F
:1008F00070470000FCED00E0001000E040420F00F7
:10090000F0030020704772B6FEE70000F0B5094F13
:10091000FF252C46A7F5807C06E010F8016B6640A9
:10092000BC5D6C401CF80650491E89B2F5D21470AB
:100930001D70F0BDB490000870B50B480168001D33
:100940000568001D0068084400280CD0074C0822E8
:10095000A11C02F0DBFD04F112012846BDE8704045
:10096000042202F0D3BD70BD107AFF1FF0040020F6
:1009700090F82020012A07D0022A05D0416A41F4CC
:100980008021416201207047006842690A43426148
:1009900000207047F0B590F820500468A468012D3D
:1009A00005D0022D03D0416A41F480214DE014F0BE
:1009B000406F01D1E50045D5C4F301640125A54090
:1009C0001D608B684FF4C0759BB1CE6833434E6891
:1009D00043EAC603066805EB0417F3514FF4C273EC
:1009E000076803EB04130E69FE50097D012905D049
:1009F00009E00E88CB6843EA4653EBE70168CE581E
:100A000046F48076CE501179D2F805304FF4C67690
:100A100041EA0321036806EB041699511178D2F8D4
:100A200001204FF4C47341EA0221026803EB04136E
:100A3000D150006805EB0411425842F001024250C7
:100A40000020F0BD416A41F4001141620120F0BD77
:100A500010B590F82020012A07D0022A05D0416A5B
:100A600041F480214162012010BD3B48D0F80022B2
:100A700042F00102C0F80022D0F8002222F47C5299
:100A8000C0F80022D0F800224B6A42EA0322C0F8E4
:100A900000220A7D02F01F0301229A40D0F81C3286
:100AA0009343C0F81C32CB69B3B9D0F80C329343EE
:100AB000C0F80C328C894B6864F31F434C6900EB1F
:100AC000C404C4F840320C890B6864F31F434C69BA
:100AD00000EBC404C4F84432CB69012B16D1D0F822
:100AE0000C321343C0F80C320C884B6864F31F437C
:100AF0004C6900EBC404C4F840320C89CB6864F341
:100B00001F434C6900EBC404C4F844328B69002BCA
:100B1000D0F804320ED01343C0F804320B69002B16
:100B2000D0F8143208D01343C0F81432096A0129EE
:100B300004D008E09343EFE79343F5E7D0F81C12A5
:100B40001143C0F81C12D0F8001221F00101C0F8C6
:100B50000012002010BD000000640040704770B516
:100B600090F82040012C05D0022C03D0416A41F4BA
:100B7000802128E0046809B32469A40720D04FF439
:100B8000D874056804EB01142D5915F0040595601F
:100B900005682D591AD0ED08556005682C5904F0E8
:100BA0000204D4604FF4DA74056804EB01142E5982
:100BB00006F00F06082E0CD308250DE0E468DCE7EC
:100BC000416A41F400114162012070BD6D0D156054
:100BD000E3E72D5905F00F05156105682D59C5F39B
:100BE0000725956105682C59240C54614FF4DC727B
:100BF000046802EB0112A4581C700468A458240A6B
:100C00005C700468A458240C9C700468A258120EEE
:100C1000DA704FF4DE72046802EB0112A4581C7102
:100C20000468A458240A5C710468A458240C9C71BC
:100C30000468A258120EDA71006829B1016941F006
:100C400020010161002070BDC16841F02001C16038
:100C5000F8E72DE9F05F0546006800244669D0F802
:100C600004908768D0F80CB0D0F810A0D0F81880A5
:100C7000F10748D0F90714D001218160B80703D5E6
:100C8000284600F028FB0CE0780702D54FF40064FA
:100C900007E0380702D54FF4805402E0284600F000
:100CA00019FBF80516D529684FF480708860B805DF
:100CB00003D5284600F011FB0CE0780502D544F47A
:100CC000005407E0380502D544F4804402E0284689
:100CD00000F002FBF80316D529684FF480308860D5
:100CE000B80303D5284600F0FAFA0CE0780302D5E1
:100CF00044F4004407E0380302D544F4803402E0B1
:100D0000284600F0EBFA300707D55FEACB6004D540
:100D10002968102044F40074C86070074FF0080779
:100D200007D55FEA0B7004D52868C760284600F035
:100D300097F9B00706D52868C068800702D0284612
:100D400000F090F9700607D55FEACA6004D52968FB
:100D5000102044F480640861B00607D55FEA0A7089
:100D600004D528680761284600F086FAF00606D503
:100D700028680069800702D0284600F07EFAB00398
:100D800008D55FEAC96005D5296810204860284663
:100D900000F074FAF00307D55FEA097004D52868FB
:100DA0004760284600F09CFA300446D55FEA497057
:100DB00040D5F00504D55FEAC87001D044F00104C5
:100DC000B00504D55FEA887001D544F002047005CF
:100DD00004D55FEA487001D544F00404300529D5F4
:100DE00018F0700F26D008F07000402815D006DCEF
:100DF000102809D020280AD0302816D10AE050281F
:100E00000ED0602811D10EE044F008040DE044F04B
:100E100010040AE044F0200407E044F0400404E039
:100E200044F0800401E044F480742868816921F072
:100E300070018161296804204860002C05D0686A2F
:100E4000204368622846FFF789FEBDE8F09F70B531
:100E5000040003D094F8200010B104E0012070BD1C
:100E6000204600F081F82068016841F0010101602E
:100E700000F008FD0546052604E000F003FD401BD8
:100E80000A2811D820684068C007F6D02068016899
:100E900021F00201016000F0F5FC05460BE000F0D6
:100EA000F1FC401B0A2806D9606A40F400306062F9
:100EB00084F82060D2E7206840688007EFD4207E65
:100EC0000128206801683DD021F080010160607E2A
:100ED00001282068016838D021F040010160A07E1F
:100EE00001282068016833D021F020010160E07EF4
:100EF0000128206801682ED041F010010160207F98
:100F000001282068016829D021F008010160607F74
:100F100001282068016824D021F004010160D4E98F
:100F200002010843D4E90412114308436168491ED1
:100F300008432168C86100206062012084F8200015
:100F4000002070BD41F08001C0E741F04001C5E7DD
:100F500041F02001CAE721F01001CFE741F008017C
:100F6000D4E741F00401D9E7F0B587B00446142175
:100F70006846FFF709FB3549354ADFF8CCE00868D9
:100F8000D4F800C0324B0324022509261032002772
:100F9000401CF44521D10860012807D1106840F0B9
:100FA00000701060106800F000700590186840F044
:100FB0000800186018688DE8B00000F00800CDE95E
:100FC000046069460394234800F06AFB002205216F
:100FD000142000F0C9FC142031E0DFF87CE0F44577
:100FE0002FD1D2F800C04CF0806CC2F800C0D2F80B
:100FF00000C001280CF0806CCDF814C0086007D147
:10100000106840F000701060106800F000700590EB
:10101000186840F0020018601868694600F0020085
:10102000059060208DE8A100CDE903460B4800F053
:1010300037FB00220521402000F096FC402000F004
:1010400085FC07B0F0BD0000006400402C000020CB
:1010500030380240000C02400068004000040240AA
:101060007047000030B589B0044607AB6A460021DE
:10107000FFF775FD764884427DD10098A0F5007099
:10108000013805D0012803D0022801D0072872D1E9
:1010900000987049C0B200EB800208706E4901EB05
:1010A000420031F812300381BDF81C305BBA21F8E0
:1010B0001230BDF81E2052BA4280BDF8202052BA2C
:1010C00082809DF8222082719FED641A4FF4805433
:1010D00065429FED630ADFED630A009A6248A2F55C
:1010E0000073023B26D18A8AB1F91C30D31AA3427D
:1010F00002DD036E5B1E03E0AB42036E01DA5B1C94
:1011000003665B005B4201EE903AB0F85C30F8EEAB
:10111000E11AD21A61EE801A81EE812A01EE902A3C
:10112000F8EEE11A61EEA01AC1EE812A72EE621A9F
:10113000C0ED131A009AA2F50073033B26D1CA8BA7
:10114000B1F92630D31AA34202DD036A5B1E03E025
:10115000AB42036A01DA5B1C03625B0001EE903A6A
:10116000838BF8EEE11AD21A61EE801A81EE812AA1
:1011700001EE902A00E069E0F8EEE11A61EEA01AB3
:10118000C1EE812A32EE221A80ED031A009AA2F5EE
:101190000073013B30D14A89B1F91230D31AA3420E
:1011A00002DD036C5B1E03E0AB42036C01DA5B1CE7
:1011B00003645B0001EE103A838FB8EEC11AD21AB5
:1011C00061EE001A9FED291A81EE812ADFED281ABF
:1011D000C2EE212A02EE102AB8EEC22A22EE203AEE
:1011E00083EE012A82EE211ADFED221A32EE811AF5
:1011F00021EE211A80ED0B1A009AB2F5027F25D15B
:1012000031F8502F40F6FE73B1F90810511A994287
:1012100003DDD0F88010491E06E040F6FE73D94287
:10122000D0F8801002DA491CC0F880104900494209
:1012300001EE101AB8EEC11A21EE001A00EE102AC3
:10124000B8EE400A00EE601A80ED1B1A09B030BDFE
:101250001C08002030000020540B00200000104229
:10126000DB0F4940DB0F493AF00B0020007060456E
:1012700000003B4300401C4670477047704770B504
:10128000044690F82000012804D0606A40F4002051
:10129000606217E0022084F820002068016821F0D5
:1012A0000101016000F0EEFA05460DE000F0EAFAF7
:1012B000401B0A2808D9606A40F4003060620520AB
:1012C00084F82000012070BD20684068C007EDD17F
:1012D000606270BD704770477047704770477047D5
:1012E00070472DE9F0410446876D00F0CBFA0546C2
:1012F00094F835000026022806D08020606584F826
:1013000034600120BDE8F0812068016821F01601F9
:1013100001602068416921F080014161206C08B9B9
:10132000A06C20B12068016821F0080101602068EC
:10133000016821F0010101600CE000F0A3FA401BFC
:10134000052807D920206065032084F8350084F83B
:101350003460D7E720680068C007EED194F85C10CD
:101360003F208840B860012084F8350084F834605C
:101370000020C7E790F83510022903D0802141658D
:1013800001207047052180F835100068016821F0C0
:1013900001010160002070472DE9F84304464FF039
:1013A0000009CDF8009063484FF41651A56D006810
:1013B000B0FBF1F72E6894F85C20082101FA02F0E6
:1013C00030420FD02068026852070BD5026822F025
:1013D0000402026094F85C008140A960606D40F0F6
:1013E0000100606594F85C104FF0010808FA01F004
:1013F000304208D021684969090604D5A860606DAB
:1014000040F00200606594F85C100420884030428F
:1014100008D021680968890704D5A860606D40F08C
:101420000400606594F85C1010208840304218D0A9
:1014300021680968090714D5A86020680168490374
:1014400004D50068000308D5A16C07E00168C90550
:1014500003D4016821F008010160216C09B1204624
:10146000884794F85C1020208840304231D02168B1
:101470000968C9062DD5A86094F8350005282068AC
:10148000016806D0490347D5006800031DD4616C8C
:101490001CE021F0160101602068416921F0800103
:1014A0004161206C08B9A06C20B12068016821F06E
:1014B0000801016094F85C103F208840A86084F81F
:1014C000358084F83490216D1FE0E16B09B120462E
:1014D0008847606D00282BD0606DC00714D00520B0
:1014E00084F835002068016821F00101016000984E
:1014F000401C0090B84203D820680068C007F6D1AD
:1015000084F8358084F83490E16C002910D001B063
:101510002046BDE8F04308470168C905D5D40168F5
:1015200021F01001016084F8358084F83490CCE714
:10153000BDE8F8833C0400202DE9F041044600F0AA
:10154000A1F905465CB1022084F83500002684F834
:1015500034602068016821F0010101600DE0012084
:10156000BDE8F08100F08EF9401B052805D9202048
:101570006065032084F83500F2E720680068C00742
:10158000F0D121680A6820480240D4E901031843D9
:10159000D4E903352B43184363691843A3691843FF
:1015A000E3691843236A18431043626A042A03D18B
:1015B000D4E90B231A431043086020684069656A28
:1015C00020F0070128460D43012704280CD1A06A0A
:1015D0000543E06A40B12046FFF7FCF820B1402007
:1015E000606584F83570BAE7206845612046FFF7EA
:1015F000DDF894F85C203F2191408160666584F8B5
:1016000035700020ACE700003F8010F02DE9F0417C
:101610000446866D90F83400002501280DD0012085
:1016200084F8340094F835700020012F07D084F836
:10163000340002252846BDE8F0810220FBE702279E
:1016400084F8357060652046FFF7EEF894F85C107A
:101650003F208840B0602068016841F016010160B9
:10166000206C20B12068016841F008010160206809
:10167000016841F001010160DCE7000070B504463B
:1016800000F000F90546601C02D0044800780444CC
:1016900000F0F8F8401BA042FAD370BD30040020DF
:1016A0002DE9F84FDFF89C910022A9F1040B0327E4
:1016B0004FF00F0C09F1040AABF1040E01250B6881
:1016C00095402B40AB426ED10C7904F00304012C01
:1016D00001D0022C15D18668540007FA04F826EAD6
:1016E0000806D1F80C8008FA04F848EA0608C0F8A1
:1016F00008804468AC430D79C5F300159540254337
:1017000045600C79E443A40708D0C568540007FA83
:1017100004F6B5438E68A6402E43C6600C7904F0EB
:101720000304022C11D1D40800EB8406356A540757
:10173000E40E0CFA04F825EA0805D1F8108008FA3E
:1017400004F848EA0508C6F820800568540007FA3E
:1017500004F6B5430E7906F00306A6402E43066054
:101760004C6814F4403F66D0374C256845F48045FA
:101770002560246822F0030504F480440094334C6F
:1017800005EB0408D8F808589407260F0CFA06F45D
:10179000A5432F4CA04201D1002424E02D4CA042AF
:1017A00002D101241FE046E02B4CA04201D10224CB
:1017B00019E02A4CA04201D1032414E0284CA04295
:1017C00001D104240FE0274CA04201D105240AE0F6
:1017D000254CA04201D1062405E0244CA04201D1B1
:1017E000072400E00824B4402C43C8F80848D9F87E
:1017F00000404D464E689C43F60200D51C432C60C9
:10180000DAF8004055464E689C43B60200D51C43AA
:101810002C60DBF800405D464E689C43B60300D563
:101820001C432C60DEF8004075464E689C43F6036E
:1018300000D51C432C60521C102AFFF43FAFBDE8BA
:10184000F88F0000083C014044380240003001405D
:10185000000002400004024000080240000C024068
:10186000001002400014024000180240001C024018
:101870000069084000D0012070470AB181617047BB
:101880000904FBE70148806870470000300400202D
:10189000024881680278114481607047300400205A
:1018A0000B4810B5016841F400710160016841F412
:1018B00080610160016841F480710160032000F0E3
:1018C00073F80F2000F006F800F024F8002010BD97
:1018D000003C024070B50D4D04464FF47A712878F3
:1018E000B1FBF0F00A490968B1FBF0F001F020F813
:1018F00048B9102C07D200222146501E00F034F8BF
:1019000000206C6070BD012070BD0000300400201C
:101910003C0400200C4882B0016841F48041016021
:10192000006800F4804000900748001F016841F003
:10193000805101600068002200F0805000900F216B
:10194000901E02B000F010B844380240002809DBB5
:1019500000F01F02012191404009800000F1E020C9
:10196000C0F8001170470000F0B40E4B1B68C3F3C1
:101970000223C3F10704042C00D904241D1D072DE4
:1019800001D2002300E0DB1E012606FA04F56D1EDD
:101990000D409D409E40761E164045EA0601F0BC73
:1019A00005F0F4B80CED00E0064A00F007011068FD
:1019B0004FF6FF03184040EA012003490843106036
:1019C000704700000CED00E00000FA057047006869
:1019D000416200207047F0B50368586A39B19C6ACB
:1019E0004FF4827500EB144400204E1E0AE040EADA
:1019F000024098620FE005EB8007DF59401C04EBC2
:101A00001744C0B2B042F6D344EA02404FF48072A9
:101A100002EB810158500020F0BDD0F8E00403F043
:101A2000A3BF01EBC10200EB8202D0F8E004126A0E
:101A300003F0C4BE01EBC10200EB8202D0F8E00467
:101A4000D2F8602203F028BFD0F8E00403F08EBF84
:101A50000A0601F00F0101EBC10100EB810101D584
:101A6000143101E001F51571006804F0DDBE70B5B8
:101A700004460B0601F00F0000EBC00104EB8101EE
:101A80004FF001024FF0000502D54A75143103E012
:101A900081F8555201F51571087094F894040128E5
:101AA00008D084F89424206804F0DCFB84F8945473
:101AB000002070BD022070BD70B5044601F00F001B
:101AC0002279904201D9012070BD0B0601F00F016F
:101AD00001EBC10104EB81014FF001024FF0000561
:101AE00002D54A75143103E081F8555201F515719C
:101AF0008D70087094F89404012808D084F8942418
:101B0000206804F01DFD84F89454002070BD02206C
:101B100070BD01F00F0101EBC10100EB8100D0F8B5
:101B2000680270472DE9F04104460F0601F00F00EE
:101B300000EBC00104EB81014FF001064FF00005FE
:101B400002D54E75143103E081F8555201F5157137
:101B5000C2F30A0208708A600B714A7802B14883A6
:101B6000022B00D14D7194F89404012809D084F817
:101B70009464206804F0C8FA284684F89454BDE8B8
:101B8000F0810220FBE710B501F00F0404EBC40163
:101B900000EB8101C1E998230023C1F8683281F884
:101BA000553281F85442837901F51571012B00D12A
:101BB000CA618279006804F01BFD002010BD70B579
:101BC00004460D4601F00F002179884201D9012019
:101BD00070BD29064FF000064FF0010206D500EB5C
:101BE000C00104EB81014A75143107E005EBC50122
:101BF00004EB810181F8556201F515718A70087056
:101C000094F89404012807D084F89424206804F000
:101C1000C3FC280702D007E0022070BDA17904F2BE
:101C20009C42206804F060FC84F89464002070BD3D
:101C300010B501F00F0404EBC40100EB8101C1E910
:101C4000082300238B6201234B7501F8144F83791D
:101C5000012B00D1CA618279006804F0C9FC002020
:101C600010BD00002DE9F84F05680446284604F031
:101C700076FE00287DD1206804F09DFE002878D0F3
:101C8000D5F80808C0F30D20C4F8D404206804F087
:101C900092FE800704D52068416901F0020141618C
:101CA000206804F088FEC10604F29C40009034D500
:101CB0002068816921F0100181612F6A07F00F000F
:101CC00000EBC00004EB8006C7F3434006F5157631
:101CD000022802D0062811D01AE047F6F070074219
:101CE00016D0C7F30A1217462846F16804F067FEBB
:101CF000F0683844F0607069384408E008222846EB
:101D0000009904F05CFE7069C7F30A110844706121
:101D10002068816941F010018161206804F04BFE68
:101D200000034FF0010B7AD50026206804F022FE54
:101D30008046DFF878A46FE05FEAC87069D0F1B23E
:101D4000206804F030FE0746C00707D005EB4611B7
:101D5000C1F808BB3146204601F0F2FF380722D512
:101D600005EB46110820C1F8080B2068D0F8409018
:101D700000E018E200EB4610D0F8082BD14505D959
:101D8000110403D54FF40041C0F8081B204600F0B1
:101D9000F1FAD14507D9A079012804D120680121A1
:101DA000009A04F0A1FBF80604D505EB46111020BB
:101DB000C1F8080BB8071DD56869000605D5D5F828
:101DC000040840F48061C5F8041806EBC60004EB73
:101DD000800090F8571200F51570012905D10021F7
:101DE000C170F1B2204600F0E7F905EB4611022080
:101DF000C1F8080BB80604D505EB46102021C0F841
:101E0000081BB80405D505EB46104FF40051C0F887
:101E1000081B4FEA5808761CB8F1000F8CD12068D7
:101E200004F0C9FD40036DD5206804F09CFD804698
:101E3000002664E05FEAC8705ED0F1B2206804F06A
:101E4000A0FD0746C00723D006F00F010BFA01F0F2
:101E5000D5F834188143C5F8341805EB4610C0F89E
:101E600008B9A07901280FD106EBC60004EB800069
:101E7000D0E907211144016236B9606A20B92068AF
:101E80000121009A04F030FBF1B22046FFF7C9FDB2
:101E9000380704D505EB46110820C1F80809F806F3
:101EA00004D505EB46111020C1F80809780604D5C1
:101EB00005EB46104021C0F80819B80716D5314681
:101EC000284604F021FD06EBC60004EB8000C17D2E
:101ED0001430012905D10021C170F1B2204600F073
:101EE00067F905EB46110220C1F80809380603D549
:101EF0003146204601F08AFF4FEA5808761CB8F1B7
:101F0000000F97D1206804F056FD002811DAD5F8AB
:101F1000040820F00101C5F8041894F8CC04012845
:101F20002BD0204600F00BFA2068416901F00041F7
:101F30004161206804F03FFD00050BD5D5F8080885
:101F4000C00702D0204600F03DFA2068416901F444
:101F500000614161206804F02EFDC00467D5D5F80A
:101F6000040820F00101C5F804181021206804F0CD
:101F7000CBFC00214FF67F3220E0002084F8CC0417
:101F800001462046FFF722FDCEE705EB4110C0F8E1
:101F90000829D0F8003923F40013C0F80039C0F83C
:101FA000082BD0F8003B23F40013C0F8003BD0F816
:101FB000003B43F00063C0F8003B491C2079884295
:101FC000E3D8D5F81C0840F00111C5F81C18E07BD7
:101FD000002828460DD0D0F8840840F00B01C5F841
:101FE0008418D5F8440840F00B012846C5F8441879
:101FF0000DE0D0F8140842F22B010843C5F814088C
:10200000D5F8100840F00B012846C5F81018D0F894
:10201000000820F4FE61C5F80018A1792068009A34
:1020200004F062FA2068416901F48051416120683E
:1020300004F0C1FC800415D5206804F0A5F82068E0
:1020400004F080FCE07100F06FFA0146E27920684C
:1020500004F014FD204600F05BF92068416901F4AA
:1020600000514161206804F0A6FC000707D5204616
:1020700000F069F92068416901F0080141612068B8
:1020800004F099FC000615D5A86920F08001A9612B
:1020900001260CE006EBC60004EB800090F8570226
:1020A000012803D1F1B22046FFF7D2FC761C20793B
:1020B000B042EFD8206804F07EFCC0021FD5012694
:1020C0005F4614E005EB4610D0F8001906EBC60099
:1020D00004EB8000027E012A08D1002906DAC775C8
:1020E000F0B240F080012046FFF7B2FC761C207968
:1020F000B042E7D82068416901F48011416120684D
:1021000004F059FC800231D501205B4626E005EB46
:102110004011D1F8001B00EBC00204EB820292F8E0
:102120005862012E19D1002917DA94F8D46401F409
:10213000803106F00106B1420FD182F85732A96909
:1021400041F08002AA616969090606D4D5F804083D
:1021500040F40070C5F8040803E0401C2179814276
:10216000D5D82068416901F400114161206804F06C
:1021700022FC400007D52046FFF74FFC206841694C
:1021800001F080414161206804F015FC40070AD548
:1021900020684568680702D52046FFF755FC20688F
:1021A000416829434160BDE8F88F00000A30544F70
:1021B000D0F8E00403F02EBCD0F8E00403F03FBCFC
:1021C000F8B5040005D094F895042668002510B1F0
:1021D00006E00120F8BD84F89454204600F056F83B
:1021E000032084F89504B6F1A04F00D1A5712068B2
:1021F00004F074F9207C8DF8000094E80F0003F0DF
:10220000D1FF0226B0BB0021206804F0F7FB88BB99
:10221000002101270CE001EBC10004EB80004775B1
:102220000175C1850576C5610562491CC9B2456263
:1022300020798842EFD8002111E001EBC10004EBC6
:10224000800080F8555280F8541280F85852C0F837
:102250005C52C0F86052491CC9B2C0F8645220797F
:102260008842EAD8207C8DF8000094E80F0004F042
:102270007DF810B184F89564ABE7657484F89574C3
:10228000206804F065F80020F8BD000000B587B0B4
:102290000021029103910491059106910068B0F12B
:1022A000A04F2BD11648016841F001010160006880
:1022B00000F0010001904FF4C05002900220039002
:1022C000032005900A20069002A90E48FFF7E8F9BE
:1022D0000D48016841F0800101600C48016841F43B
:1022E00080410160006800F48040019000220521D7
:1022F0004320FFF739FB4320FFF728FB07B000BD61
:102300003038024000000240343802404438024075
:1023100070B504460125E07900280ED0022801D0CE
:10232000FEF7F1FA2946D4F8E00403F0F9FBD4F8FB
:10233000E004BDE8704003F0ACBB0025F2E7D0F844
:10234000E00403F0D6BBD0F8E00403F0DCBB10B52A
:10235000044690F8940401280AD0012084F89404DB
:102360006174206804F078FB002084F8940410BDA8
:10237000022010BDD0F8E02400F29C41104603F08A
:10238000DBBB10B50446006894F89414012909D009
:10239000012184F89414C168490609D5617B01299B
:1023A00002D005E0022010BD816B41F480318163D1
:1023B000206804F087FA206803F0BCFF002084F84E
:1023C000940410BD10B50446D4F8E00403F0F8FB03
:1023D0002068D0F8001E41F00101C0F8001EE07A2C
:1023E000002804D00248016841F00601016010BDD8
:1023F00010ED00E02DE9F0470D46040065D0DFF850
:102400001491D9F80000EFB200F00700A84207D2FB
:1024100089F80070D9F8000000F00700A84254D1F4
:1024200020683D4E810712D5400703D5306840F43F
:10243000E05030602078000703D5306840F46040F9
:1024400030603068A16820F0F000084330602078E8
:10245000C0072DD0304960680839012812D0022801
:1024600013D0032811D00968890700292DDA3168B3
:1024700021F0030101433160FFF704FA804641F285
:10248000883A0EE009688903EFE709688901ECE7FB
:10249000FFF7F8F9A0EB0801514502D90320BDE888
:1024A000F0873068616800F00C00B0EB810FEFD16D
:1024B000D9F80010484601F00701A94207D9077072
:1024C000006800F00700A84201D00120E7E720786B
:1024D000400705D53068E16820F4E05008433060DB
:1024E0002078000706D53068216920F4604040EA72
:1024F000C100306000F03EF83168084AC1F30311B2
:10250000515CC8400649086006480068FFF7E2F9D8
:102510000020C4E7003C024008380240BC9100089B
:102520003C0400203404002001480068704700008B
:102530003C0400200448054900680968044AC1F3C6
:102540008221515CC84070473C040020083802409A
:10255000CC9100080448054900680968044AC1F3A1
:102560004231515CC84070473C04002008380240AA
:10257000CC910008154810B5006810F00C01144803
:1025800013D0144B04290FD008290ED10F4C241F4F
:10259000216801F03F022168490207D52068C0F395
:1025A0008810A0FB030106E0184610BD2168C1F3A6
:1025B0008811A1FB00010023FDF7D6FE2168C1F3BD
:1025C0000141491C4900B0FBF1F010BD0838024040
:1025D0000024F400001BB7002DE9F84F040075D06B
:1025E0002078DFF838A3C007AAF1040548D00AF123
:1025F00004000168C1F38101012908D00068C0F31B
:10260000810002280AD1DAF80000400206D52868C5
:10261000800335D560680028E1D031E06068B0F50E
:10262000803F10D0B0F5A02F286810D020F4803063
:102630002860286820F4802028606068A0B1FFF737
:1026400021F906460CE0286840F48030F4E740F4B5
:1026500080202860F7E7FFF715F9801B642871D800
:1026600028688003F7D50BE0FFF70CF9064604E075
:10267000FFF708F9801B6428F1D828688003F7D495
:102680002078DFF89C9280074FF0000B3DD5A348DF
:10269000001D016811F00C0F08D00068C0F3810024
:1026A00002280AD1DAF80000400206D42868800720
:1026B00015D5E068012809D111E0E068B8B1012022
:1026C000C9F80000FFF7DEF8064605E022E1FFF753
:1026D000D9F8801B0228C2D828688007F7D5286857
:1026E000216920F0F80040EAC10028600DE0C9F837
:1026F00000B0FFF7C7F8064604E0FFF7C3F8801BF9
:1027000002281FD828688007F7D42078000722D530
:10271000824F84486169703771B101210160FFF710
:10272000B1F8064604E0FFF7ADF8801B022809D88F
:1027300038688007F7D50EE0C0F800B0FFF7A2F8C0
:10274000064605E082E0FFF79DF8801B02287DD851
:1027500038688007F7D42078400765D56F484FF078
:1027600000083C300068C0000BD46C483C30016865
:1027700041F08051016000684FF0010800F0805086
:102780000090694F3868C0050FD4386840F48070F5
:102790003860FFF777F8064604E0FFF773F8801B10
:1027A000022853D83868C005F7D55C4FA0686C374D
:1027B00001280FD00528386810D020F001003860BB
:1027C000386820F004003860A068B0B1FFF75AF80C
:1027D00006460EE0386840F00100F4E740F00400DF
:1027E0003860F7E7FFF74EF8811B41F288308142ED
:1027F00063D838688007F5D50DE0FFF743F8064643
:1028000006E0FFF73FF8811B41F28830814254D83F
:1028100038688007F5D4B8F1000F05D03F483C3048
:10282000016821F080510160A069B8B33B49091DDE
:102830000968C1F38101022946D00228584606D012
:10284000C9F86000FFF71EF8044639E035E04F464E
:10285000C9F86000FFF716F8064604E0FFF712F823
:10286000801B022829D828688001F7D4D4E9070101
:102870000843A16A2D4A490802EB0141626A41EA14
:102880008211084394F82C1040EA0161CAF8001044
:1028900001203866FEF7F6FF044605E03CE0FEF74F
:1028A000F1FF001B022808D828688001F7D533E023
:1028B000FEF7E8FF001B022802D90320BDE8F88FCD
:1028C00028688001F4D427E00128F7D0DAF8000066
:1028D000E26900F4800191421CD1226A00F03F01BC
:1028E000914217D147F6C071626A0140B1EB821F75
:1028F00010D1A26A4FF0FF3300F4403103EB5202D3
:10290000B1EB024F06D194F82C1000F07060B0EBE0
:10291000016F01D00120D1E70020CFE70438024049
:1029200000004742800E4742007000400000FFFF59
:1029300010B5401EB0F1807F01D3012010BD4FF0D3
:10294000E02460610F21601704F020F90020A061ED
:1029500007202061002010BD10B590F83C20012A0E
:1029600022D0012280F83C20CA688C6822F4407290
:1029700022434C6822F4806222430C6822F40062F5
:1029800022430C6922F4805222434C6922F4005203
:102990002243C969002322F480420A4301684A6441
:1029A00080F83C30002010BD022010BD70B590F8BA
:1029B0003C20012A32D0012580F83C50022280F8C8
:1029C0003D2002685368946823F070060B68334317
:1029D0005360134B02689A4214D0B2F1804F11D069
:1029E000104B9A420ED0104B9A420BD00F4B9A428A
:1029F00008D00F4B9A4205D00E4B9A4202D00E4B94
:102A00009A4204D1496824F080031943916080F808
:102A10003D50002180F83C10084670BD022070BD7A
:102A2000000001400004004000080040000C00408D
:102A300000040140004001400018004010B50400AF
:102A400003D094F83D0010B107E0012010BD002034
:102A500084F83C00204600F01FF8022084F83D0076
:102A6000211D206801F016FD012084F8460084F83D
:102A70003E0084F83F0084F8400084F8410084F868
:102A8000420084F8430084F8440084F8450084F848
:102A90003D00002010BD000008B500680B4A0C493D
:102AA000904207D1086840F001000860086800F013
:102AB000010009E0074A904207D1086840F002008F
:102AC0000860086800F00200009008BD00000140A6
:102AD000443802400004014090F83D10012901D023
:102AE00001207047022180F83D100068114988429A
:102AF00014D0B0F1804F11D00F4988420ED00F4949
:102B000088420BD00E49884208D00E49884205D031
:102B10000D49884202D00D49884204D1816801F0F4
:102B20000701062903D0016841F00101016000207E
:102B30007047000000000140000400400008004011
:102B4000000C00400004014000400140001800401B
:102B500070B5044690F83C000025012817D00126E6
:102B600084F83C60022084F83D002068826822F0EE
:102B7000770222F47F4282600868502838D00DDC4A
:102B800020284FD005DC90B3102811D14AE0022054
:102B900070BD302846D040280AD13BE060282FD0B5
:102BA00070280DD0B0F5805F03D0B0F5005F12D073
:102BB000012584F83D60002084F83C00284670BD63
:102BC000CB68D1E90121206801F0DDFC2068816833
:102BD00041F0770109E0CB68D1E90121206801F0DB
:102BE000D2FC2068816841F480418160E1E719E00E
:102BF000CA684968206801F09BFD5021206806E002
:102C0000CA684968206801F0A4FD6021206801F0CD
:102C1000C4FCCEE7CA684968206801F089FD4021FC
:102C20002068F4E7226801461046F0E770B586B0E8
:102C3000044614216846FDF7A7FC2E4A21682E4859
:102C400002240125914223D1016841F01001016065
:102C50000068694600F0100005904FF4D4408DE8FC
:102C600031002648CDE90345FEF71AFD2448FFF759
:102C700033FF0021224800F0DFF80421204800F053
:102C8000DBF808211E4800F0D7F80C211C482CE086
:102C90001C4A91422BD1016841F4807101600168A6
:102CA00001F480710591016841F004010160006840
:102CB000032600F004000590C0208DE83100CDE926
:102CC000034669461048FEF7EBFC40208DE83100D2
:102CD000CDE9034669460D48FEF7E2FC0848483056
:102CE000FFF7FAFE06480021483000F0A5F806B0CC
:102CF00070BD00000000014030380240001002406A
:102D00006C0800200004014000200240000802403E
:102D100070B5044690F83C0000260D4601280FD0FF
:102D2000012084F83C006AB1042A1DD0082A2FD063
:102D30000C2A3FD00126002084F83C00304670BDAC
:102D4000022070BD206801F031FC2068816941F0EB
:102D5000080181612068816921F004018161206896
:102D600081692A69114311E0206801F04FFC206855
:102D7000816941F4006181612068816921F4806189
:102D80008161206881692A6941EA02218161D2E773
:102D9000206801F071FC2068C16941F00801C1613F
:102DA0002068C16921F00401C1612068C1692A69F4
:102DB000114311E0206801F093FC2068C16941F4DF
:102DC0000061C1612068C16921F48061C16120682E
:102DD000C1692A6941EA0221C161ACE710B504006A
:102DE00003D094F83D0010B107E0012010BD002091
:102DF00084F83C00204600F01EF8022084F83D00D4
:102E0000211D206801F046FB012084F8460084F86B
:102E10003E0084F83F0084F8400084F8410084F8C4
:102E2000420084F8430084F8440084F8450084F8A4
:102E30003D00002010BD704710B5044649B104297B
:102E40000AD008290BD094F8410001280AD00120AB
:102E500010BD94F83E00F8E794F83F00F5E794F8C9
:102E60004000F2E70220B1B3042938D0082939D054
:102E700084F841000122206801F078FB1B4920689A
:102E80001B4A884201D0904203D1436C43F4004373
:102E900043642068884213D0B0F1804F10D01549A8
:102EA00088420DD0144988420AD01449884207D07C
:102EB000904205D01249884202D01249884204D17A
:102EC000816801F00701062903D0016841F0010182
:102ED0000160002010BDFFE784F83E00CAE784F8D7
:102EE0003F00C7E784F84000C4E70000000001404D
:102EF000000401400004004000080040000C0040B5
:102F0000004001400018004038B5044690F84200E7
:102F1000202801D0022038BD51B14AB101202063E0
:102F200000206063204601F0C1FD010002D005E0F1
:102F3000012038BD206B012802D00121084638BD90
:102F4000206802684068009020680C3050E8002F2C
:102F500042F0100240E80023002BF5D1EEE7704765
:102F600070470000F8B5016804460868CA684B69F4
:102F700010F00F0F4FF0000559D003F0010602F4D6
:102F80009077374365D0C10705D0D10503D5616C73
:102F900041F001016164410705D5D90703D0616C97
:102FA00041F002016164810705D5D90703D0616C46
:102FB00041F004016164010707D502F020013143AB
:102FC00003D0616C41F008016164616C00293AD062
:102FD000800604D5900602D5204601F080FC2068CA
:102FE0004069616CC0F38010090700D460B32046CB
:102FF00001F040FC20684069400621D5206814306B
:1030000050E8001F21F0400140E80012002AF5D1ED
:10301000E06BA8B16E490165E06BFEF7ABF90028E3
:1030200011D0E06B016D01B0BDE8F04008478306A8
:103030000FD593060DD52046BDE8F84001F04FBCF2
:103040002046FFF78DFFF8BD2046FFF789FF656436
:10305000F8BD266B2023012E7DD1C6067BD5D60672
:1030600079D508684868009048694FF00206400624
:1030700041D5E16B086840680004000CE8D0A28DDF
:103080008242E5D9E085C869B0F5807F2DD02068FF
:103090000C3050E8001F21F4807140E80012002A33
:1030A000F5D12068143050E8001F21F0010140E8FC
:1030B0000012002AF5D12068143050E8001F21F0DA
:1030C000400140E80012002AF5D184F8423025631F
:1030D00020680C3050E8001F21F0100140E8001279
:1030E000002AF5D1E06BFEF7FCF86663A08DE18D58
:1030F000401A81B22AE0A08DE18D401A81B2E08DA4
:103100000028A5D00029A3D020680C3050E8002F5B
:1031100022F4907240E80027002FF5D12068143087
:1031200050E8002F22F0010240E80027002FF5D1DF
:1031300084F84230256320680C3050E8002F22F0DC
:10314000100240E80023002BF5D166632046FFF70C
:1031500006FFF8BDFFE705062BD5150629D594F81F
:1031600041002128F5D1A068B0F5805F01D1206928
:10317000B0B1206A411C2162216800784860E08C6F
:10318000401E0004000CE084E3D12068C16821F0F7
:103190008001C1602068C16841F04001C160D8E78A
:1031A000206A0088C0F308004860206A801C206202
:1031B000E5E74006CDD55006CBD5CA68204622F0BB
:1031C0004002CA6084F8413000F09EF9C1E7000077
:1031D0007747000870B5040004D094F8410000253A
:1031E00010B106E0012070BD84F84050204600F088
:1031F00023F8242084F841002068C16821F400519C
:10320000C160204601F0CCFB2068016921F49041A7
:1032100001612068416921F02A0141612068C1688B
:1032200041F40051C1606564202084F8410084F8B5
:1032300042006563002070BD2DE9F04786B004466A
:1032400014216846FDF7A0F97B48DFF8E8811438BF
:10325000D4F800C0784B0226032107220025071569
:103260004FF0006AC44563D1D3F800C04CF0100C95
:10327000C3F800C01B6803F010030593036843F014
:1032800002030360036803F002030593036843F03D
:10329000010303600068894600F00100059080206A
:1032A000CDE90006CDE9025990466946049263488B
:1032B000FEF7F6F93002CDE90006CDE9026969466C
:1032C0005F48CDF81080FEF7EBF95F4E5D48D046C1
:1032D0003060C6E901A5C6E903577561B561F561BE
:1032E000356230467562FEF727F908B1FDF70BFB32
:1032F000E663B463544E534860367830E6E802081B
:103300004020A1C6504846F814596030B561F561B7
:1033100035627562FEF710F908B1FDF7F4FAA6639D
:10332000002205212520B463FEF71EFB25203FE087
:10333000DFF81881C44540D13F4B1B1FD3F800C0B4
:103340004CF4802CC3F800C01B6803F48023059361
:10335000036843F0040303600068029500F0040072
:103360000590CDE903124FF44060CDE900066946AF
:103370003748FEF795F9344E3648C0363060C6E916
:1033800001A5C6E9035775614FF40030B561C6E980
:10339000075030467562FEF7CFF808B1FDF7B3FA73
:1033A000E663002205212720B463FEF7DDFA27201B
:1033B000FEF7CCFA06B0BDE8F087274A9445F9D16C
:1033C0001A6842F020021A601A6802F02002059280
:1033D000026842F0400202600068029600F040007D
:1033E00005904FF48440CDE900060820CDE9031094
:1033F00069461A48FEF754F91248194E18383060D9
:103400008005C6E90105C6E903577561B561F56137
:10341000356230467562FEF78FF808B1FDF773FA32
:10342000E663002205214720B463FEF79DFA47209A
:10343000BEE7000000100140443802400004024092
:103440000000024040640240D409002000480040CF
:1034500000080240286002400014014000180240A9
:10346000F40A0020704770472DE9F843044690F8AD
:1034700041001F4615460E46202802D00220BDE816
:10348000F8838EB185B100206064212084F841006A
:10349000FEF7F8F9A5848146E584A0684FF020087E
:1034A000B0F5805F02D003E00120E8E7206910B1A9
:1034B000354600260EE000250CE08021204601F074
:1034C0003FFBA0B9BDB115F8010B21684860E08C45
:1034D000401EE084E08C4B464FF00002009700282D
:1034E000EBD14FF04001204601F02AFB40B184F8B7
:1034F00041800320C3E736F8020BC0F30800E4E77D
:1035000084F841800020BAE77047FEE7F0B400235A
:10351000002A18D90A24302537269C46B4EB107FA0
:1035200004D905EB107701F8137003E006EB107770
:1035300001F81370000101EB430787F801C05B1C21
:10354000DBB29342EAD3F0BC704700000F4810B5DD
:103550000D4901600321416000214FF41022816078
:10356000C0E903124FF40012426101764176817680
:10357000C17601774177FDF76AFC002803D0BDE8EA
:103580001040FDF7C0B910BD006400401C080020C9
:103590000F4810B50D4901600321416000214FF42F
:1035A00010228160C0E903124FF4001242610176DB
:1035B00041768176C17601774177FDF748FC002896
:1035C00003D0BDE81040FDF79EB910BD0068004073
:1035D00044080020194808B5016841F40011016051
:1035E000016801F400110091016841F4800101605B
:1035F0000068002200F48000009005210C20FEF7F6
:10360000B3F90C20FEF7A2F9002205213920FEF7BC
:10361000ABF93920FEF79AF9002205213A20FEF78E
:10362000A3F93A20FEF792F9002205214620FEF781
:103630009BF9BDE808404620FEF788B930380240C3
:1036400010B5AAB01C2221496846FCF749FF0021A9
:10365000684604F0C8FA1E4C1C491C2220601C312C
:1036600007A8FCF73DFF002107A804F0BCFA1749A2
:1036700060601C2238310EA8FCF732FF00210EA832
:1036800004F0B1FA1149A0601C22543115A8FCF7CE
:1036900027FF002115A804F0A6FA0C49E0601C22BF
:1036A00070311CA8FCF71CFF00211CA804F09BFA39
:1036B000064920611C228C3123A8FCF711FF002150
:1036C00023A804F090FA60612AB010BD0C8F0008A6
:1036D000140000202DE9F04387B014216846FCF760
:1036E00053FF47480025016841F00201016001686D
:1036F00001F002010591016841F04001016001689B
:1037000001F040010591016841F00101016001688B
:1037100001F001010591016841F0080101600168B3
:1037200001F008010591016841F0040101600168A0
:1037300001F004010591016841F4807101600168A4
:1037400001F480710591016841F020010160016878
:1037500001F020010591016841F0800101600168DC
:1037600001F080010591016841F0100101600068DD
:10377000DFF8908000F010004FF480770590002271
:1037800039464046FEF779F8DFF87C9000224FF486
:1037900050414846FEF771F8012251034846FEF7B2
:1037A0006CF8032601240096CDE9015469461748B8
:1037B000FDF776FFCDE900740227CDE9024769469F
:1037C0004046FDF76DFF200303958DE891006946A3
:1037D0004846FDF765FF4FF42040CDE900046946F7
:1037E0004846CDE90245FDF75BFFA0038DE8710077
:1037F00069464846FDF754FF07B0BDE8F083000076
:103800003038024000080240000402400014024028
:1038100010B596B000240F94109411941294139440
:103820001C2168461494FCF7AFFE202107A8FCF782
:10383000ABFE35483349016040F24731C0E901141D
:1038400040F69F71C0E9031444618461FFF7F6F804
:1038500008B1FDF758F84FF480500F900FA92A488F
:10386000FFF776F908B1FDF74EF82748FFF7B6FAEB
:1038700008B1FDF748F8139413A923481494FFF7EF
:1038800095F808B1FDF73FF86020CDE900040294F7
:10389000039404940594002269461B480694FFF79C
:1038A00037FA08B1FDF72FF8042269461648FFF7EA
:1038B0002FFA08B1FDF727F8082269461248FFF7EA
:1038C00027FA08B1FDF71FF80C2269460E48FFF7EA
:1038D0001FFA08B1FDF717F80794089409944FF4FC
:1038E00000500A94CDE90B4007A907480E94FFF752
:1038F00033F808B1FDF707F80348FFF797F916B05A
:1039000010BD0000000001406C08002010B596B00A
:1039100000240F9410941194129413941C2168465F
:103920001494FCF731FE202107A8FCF72DFE314846
:103930002F49016040F61F51C0E9011440F2E73100
:10394000C0E903148021C0E90541FFF777F808B109
:10395000FCF7D9FF4FF480500F900FA92548FFF7CF
:10396000F7F808B1FCF7CFFF2248FFF737FA08B1A4
:10397000FCF7C9FF139413A91E481494FFF716F817
:1039800008B1FCF7C0FF6020CDE900040294039465
:10399000049405940022694616480694FFF7B8F986
:1039A00008B1FCF7B0FF042269461248FFF7B0F9EE
:1039B00008B1FCF7A8FF082269460E48FFF7A8F9EE
:1039C00008B1FCF7A0FF0794089409944FF4005045
:1039D0000A94CDE90B4007A906480E94FEF7BCFFF8
:1039E00008B1FCF790FF0348FFF720F916B010BDAF
:1039F00000040140B40800200C4810B50A490160D9
:103A00004FF4E1314160002181600C22C160C0E9C6
:103A100004128161C161FFF7DDFB002803D0BDE81E
:103A20001040FCF770BF10BD00100140FC080020E2
:103A30000C4810B50A4901600B49416000218160C2
:103A40000C22C160C0E904128161C161FFF7C2FBB1
:103A5000002803D0BDE81040FCF755BF10BD0000A2
:103A60000048004044090020A08601000C4810B521
:103A70000A4901604FF4E1314160002181600C226C
:103A8000C160C0E904128161C161FFF7A3FB002896
:103A900003D0BDE81040FCF736BF10BD0014014054
:103AA0008C09002010B500220F49104801F060FE7B
:103AB00008B1FCF728FF0E490C4802F0B0F808B135
:103AC000FCF721FF0B49094801F00EFB08B1FCF798
:103AD0001AFF064802F078F9002803D0BDE810402C
:103AE000FCF711BF10BD0000BC040020145B0020D7
:103AF000780500200C050020FEE7FEE770B50446BF
:103B0000D0F8060090ED011A784880ED031A0020E5
:103B1000042317E0D4F8061003EB80028D1801EBA4
:103B20008001D5ED001A71EEC11AC1ED001AD4F86A
:103B30000A100A4401EB8001D2ED001A401CC1EDCD
:103B4000001A80B22188491E8142E3DC2188D4F822
:103B500006006FF0070202EB8102024492ED001AA8
:103B60006FF0030202EB810131EE000A084480EDA0
:103B7000000A2188D4F80A0002EB81010844C0ED54
:103B8000000AD4F802002188884202D2401CC4F8FE
:103B90000200102104F11A00FCF7D4FC2188D4F8AB
:103BA00002000B1A98B23BE0D4F80620D4F81A5061
:103BB00002EB800200EE905A92ED000A40EE000AFD
:103BC00010EE905AC4F81A50D4F81E50D2ED000AE4
:103BD00000EE105A30EE800A10EE105AC4F81E5053
:103BE000D2ED000AD4F80A20D4F8225002EB800269
:103BF00000EE105A92ED001A401C80B200EE810ACD
:103C000010EE105AC4F82250D2ED000AD4F8262043
:103C100000EE102A30EE800A10EE102AC4F826209A
:103C20008142C1D800EE101AD4F82200D4F8262020
:103C3000B8EE400A00EE900AD4F81E0001EE102AF9
:103C400060EE800A00EE100AD4F81A2040EE410A15
:103C500000EE101A01EE102AB8EE400A21EE001A0A
:103C600000EE100A002000EE401A80EE810A10EEED
:103C7000102AC4F80E20C4F8160098B223E0D4F835
:103C8000063000EE902A03EB800393ED001AD4F87F
:103C9000123000EE103AD4F80A3000EE810A03EB3D
:103CA0008003401CD3ED000AD4F8163080B230EE09
:103CB000600AF0EEC00A00EE103A30EE800A10EE14
:103CC000103AC4F816308142D9D800EE101A54F8D0
:103CD000160FB8EE401A00EE900A80EE810A10EE40
:103CE000100A00EE102A206070BD0000A804002019
:103CF00070B50446002524F8021B8E00256030466E
:103D000004F064F96060304604F060F9A060E5609A
:103D1000256160683146FCF737FCA0683146A41E77
:103D2000FCF732FC04F11A00BDE870401021FCF7EA
:103D300009BC00000148FDF795BF0000107200208B
:103D40002DE9F041066805460C46306C06EB44113F
:103D5000D1F8083B95F806C04FF400474FF0200E0D
:103D600005F29C42BCF1010F08D0DFF898C0604515
:103D700038D1180431D5C1F8087B3FE0224E5FEA04
:103D8000037C04D5B04239D91804F4D436E05FEA94
:103D9000836C02D5C1F808EB30E013F0280F2DD169
:103DA000B04201D91804E6D404EBC40005EB80004E
:103DB000D1F8101BD0F87432C1F31201591AC0F8AF
:103DC000681200F51570ACB903691BB1C2681144E3
:103DD000C1600FE0012128680AE098060AD5C1F801
:103DE00008EB07E034B9D5F8640218B90021304671
:103DF00002F07AFBE1B22846FDF71CFE0020BDE888
:103E0000F08100000A31544F0A30544F2DE9F84F29
:103E10000E4601EBC60100EB81048146D0F800801C
:103E2000D4E909101434884202D90120BDE8F88F82
:103E3000081AA168814200D20846C01C870808EB16
:103E4000461A15E0451AA068A84200D20546E81CAB
:103E5000870899F806000090ABB2F2B24046E168DC
:103E600002F080FEE0682844E060606928446061F8
:103E7000DAF8180980B2B84205D3D4E904018142C6
:103E800001D20028DED1D4E90401884208D806F026
:103E90000F0101208840D8F834188143C8F834183D
:103EA0000020C3E770B504462DED028BB0EE608AAA
:103EB00090F89C00F0EE408A000649D5606B00EE59
:103EC000100A206C01EE100ADFEDFE1A21EE211A15
:103ED000B4EEC10AF1EE10FA3AD32068FA4A00EEC5
:103EE000100AB0EEC00A10EE101A914230DB2169C0
:103EF00000EE100A01EE101AF44930EE410AB0EE5D
:103F0000C01A00EE100AF0EEC01A81EE210A10EE7F
:103F1000100A88420ADD54F89D0F6168401C44F87D
:103F2000040B41F1000144F8A11904E00020C4F899
:103F30009D00C4F8A100D4F89D10D4F8A1304FF42E
:103F4000FA720020511A984102D2012084F8A5008B
:103F500004F19000FCF790FC10EE100A18EE101A15
:103F6000C4F8940018EE900A08EE101A206108EECA
:103F7000900A216038EE680A10EE100AA061D4F8A9
:103F8000A61009B120468847A06900EE100AB5EED8
:103F9000C00AF1EE10FA00EE100A01DCB1EE400AA0
:103FA000A16C00EE901AB4EEE00AF1EE10FA7BDD9F
:103FB000D4F8981004F16603E9B3626800EE102AA1
:103FC0000A6800EE902A70EE200A00EE100A20EE39
:103FD000800A10EE102A6262A26800EE102A4A6877
:103FE00000EE902AD4F8942070EE200A00EE100A19
:103FF00060EE800A00EE102A20EE800A10EE105AC1
:104000002563B4F86450022D4FD900EE900A00EEFB
:10401000102A1846FFF772FDE06800EE900AD4F807
:104020009800806801EE100A70EE810A20EE200AE6
:1040300010EE100A50E0FFE7616800EE100A00EE93
:10404000901A20EE800A10EE101A00EE100A61623B
:10405000A16800EE901AD4F8941060EE800A00EE89
:10406000101A20EE800A10EE102A2263B4F86420A1
:10407000022A0AD900EE900A00EE101A1846FFF73D
:104080003DFDE06800EE900AD0E700EE100AE0691E
:1040900000EE900AE06870EE600A00EE100A20EE72
:1040A000801A00EE101A13E017E1E368896800EE49
:1040B000103A00EE901A30EE201A00EE100AE06975
:1040C00000EE900A30EE600A21EE001A00EE102A8F
:1040D000C1EE000A10EE900AE062D4F8AA1009B10D
:1040E0002046884794F89C00410721D5D4F89810C1
:1040F000B6EE000AE9B3A268496800EE902A01EE24
:10410000101AA16970EE811A00EE901AE16901EEB1
:10411000101A70EE810A20EE800A61EE800AD4F84F
:10412000941000EE101A20EE800A10EE101A21638F
:10413000800602D5204603F041FA94F89C008007DF
:1041400002D5204603F093FA94F89C20500627D518
:10415000E06AD4F8941000EE900A00EE101AE06DB8
:1041600060EE801A00EE900A00EE101A30EE800A1F
:1041700000E03AE081EE801AE36B00EE100A00EEF8
:10418000903A60EE801A00EE100A00EE901A30EEBF
:10419000200AC1EE800A31EE200A10EE100AE06219
:1041A000D00702D0204603F0BEFAA06A00EE100A43
:1041B000206B00EE900A30EE200A10EE100AA0628A
:1041C000626A00EE100A00EE902AE06A70EE800A41
:1041D00000EE100A30EE800A10EE100A606394F8C8
:1041E0009C10C90611D4606B34E0A16900EE901AEE
:1041F000E16901EE101AA16870EE810A60EE800A92
:1042000000EE101A60EE800A89E7D4F8941000EEF0
:10421000100A00EE901AA06DA36B60EE201A00EE5B
:10422000900A00EE101A30EE800A00EE903A81EE0D
:10423000801A00EE100A60EE801A00EE100A00EEFE
:10424000901A30EE200AC1EE800A31EE200A10EEFC
:10425000100A606300EE900A206C00EE100AF4EE83
:10426000C00AF1EE10FA00DD6063616B00EE100A27
:1042700000EE901AB1EE400AF4EEC00AF1EE10FA28
:1042800006D200EE100AB1EE400A10EE101A616379
:1042900000EE102A00EE900AB4EEE00AF1EE10FAF9
:1042A00000DD6062616A00EE100A00EE901AB1EE65
:1042B000400AF4EEC00AF1EE10FA0ED200EE100A37
:1042C00006E000006F12833A17B7D1383333733FDB
:1042D000B1EE400A10EE100A606220696061606B06
:1042E000A063E16AE163A169E161216B216200EEF3
:1042F000100ABDEC028B70BD70B5044611EE100AB9
:104300000025A06410EE900A1646606410EE100AB4
:10431000206411EE900A2560606012EE100AA06021
:1043200012EE900AE060256313EE100A2566206500
:1043300013EE900A606514EE100AA06514EE900A60
:10434000E065A4F8641004F16600FFF7D1FCC4F83E
:10435000905084F89C600021C4F89D10C4F8A1100E
:1043600084F8A5502566656370BD000030B5144C17
:1043700023685D6945F040055D612368DC6844F0B1
:104380001004DC600F4C23681D6825F001051D60DA
:1043900023681D68ED07F7D125680B4BAB602368D8
:1043A000D86020680161206842602068016841F49B
:1043B000802101602068016841F00101016030BD89
:1043C00044090020940A002004480040FFF76AFBDB
:1043D000012003F0EFFBFBE710B5FDF759FA04F0FD
:1043E000A3FC012803D0BDE8104004F021BC10BD9F
:1043F00030B593B030216846FCF7C6F814210CA8FC
:10440000FCF7C2F81D480025016841F080510160A9
:10441000006800F0805011901948016841F4804113
:1044200001600068022400F4804011900120009097
:10443000000401908001CDE9064006200890A820E4
:10444000CDE9090407200B906846FEF7C5F808B1CE
:1044500072B6FEE70CA90F2081E831004FF4A0509E
:104460000F904FF48050109005210CA8FDF7C2FF6B
:10447000002801D072B6FEE713B030BD40380240CC
:10448000007000400248016841F47001016070470B
:1044900088ED00E0F0B50268294D2A4E2A4FDFF87A
:1044A000ACC02B4B4FF0804EA84209D0704507D0CE
:1044B000B04205D0B84203D0604501D0984203D144
:1044C00022F070044A682243A8421BD0704519D0DC
:1044D000B04217D0B84215D0604513D0984211D0E1
:1044E0001C4CA0420ED01C4CA0420BD01B4CA04236
:1044F00008D01B4CA04205D01A4CA04202D01A4C46
:10450000A04203D122F44074CA6822434C6922F0CD
:104510008002224302608A68C2620A688262A842FC
:1045200001D0984201D1096901630121416101690A
:10453000C90703D0016921F001010161F0BD00004C
:10454000000001400004004000080040000C004052
:104550000004014000400140004401400048014087
:1045600000180040001C00400020004010B501F081
:104570001F010123046A8B409C430462036A8A4042
:104580001343036210BD10B5846842EA032224F489
:104590007F440A432243826010BD826822F0700289
:1045A0000A4342F00701816070470000F0B5026ADB
:1045B000036A23F00103036243688469114E24F007
:1045C00073050C68104F2C4322F002058A682A43B9
:1045D000B04201D0B84205D122F00805CA682A438A
:1045E00022F00402B04201D0B84205D14D6923F453
:1045F00040731D438B692B43436084614968416369
:104600000262F0BD0000014000040140F0B5026A02
:10461000036A23F010030362436884690D6824F47D
:10462000E64444EA05248D6822F0200242EA05129D
:104630000F4D104EA84201D0B04206D1CF6822F0F3
:10464000800242EA071222F04002A84201D0B042A2
:1046500007D14D6923F4406343EA85038D6943EA3A
:10466000850343608461496881630262F0BD000094
:104670000000014000040140F0B5026A036A23F41F
:10468000807303624368C46922F4007224F07305E6
:104690000C68124E2C438D6842EA05220E4DA8424A
:1046A00001D0B04206D1CF6822F4006242EA07226C
:1046B00022F48062A84201D0B04207D14D6923F4B0
:1046C000405343EA05138D6943EA05134360C4610F
:1046D0004968C1630262F0BD00000140000401406E
:1046E00030B5036A026A22F4805202624268C469E9
:1046F0000D6824F4E64444EA05248D6823F400534D
:1047000043EA0533084DA84202D0084DA84204D11F
:104710004D6922F4804242EA85124260C4614968D0
:104720000164036230BD000000000140000401404C
:1047300010B5046A036A23F001030362836923F05E
:10474000F00343EA021324F00A020A43836102627F
:1047500010BD10B5036A046A24F010040462846971
:1047600023F0A00324F4704444EA023243EA011126
:104770008261016210BD10B5806B0021C185C184CA
:10478000FEF7EEFB10BD70B5846B2068406994F8AD
:104790004110C0F3C0100025212904D118B1E584CF
:1047A000204600F08EF82068406994F84210C0F36B
:1047B0008010222904D118B1E585204600F05AF86E
:1047C000606C40F0100060642046FEF7C9FB70BDCD
:1047D00010B50146806B096809684FF00003C905F0
:1047E0002ED4C38501680C3151E8002F22F4807269
:1047F00041E80024002CF5D10168143151E8002F64
:1048000022F0010241E80024002CF5D101681431A6
:1048100051E8002F22F0400241E80024002CF5D19D
:10482000202180F84210016B012909D101680C3167
:1048300051E8002F22F0100241E80024002CF5D1AD
:104840004363016B012902D0FEF70CFE10BD818D80
:10485000FEF785FB10BD10B5806B01214163016B34
:10486000012902D0FEF7FFFD10BD818D4908FEF73A
:1048700076FB10BD01680C3151E8002F22F49072D4
:1048800041E80023002BF5D10168143151E8002FD5
:1048900022F0010241E80023002BF5D1016B012930
:1048A00009D101680C3151E8002F22F0100241E8D3
:1048B0000023002BF5D1202180F842100021016354
:1048C000704701680C3151E8002F22F0C00241E826
:1048D0000023002BF5D1202180F84110704708B546
:1048E00090F84210222901D0022008BD81684FF4BF
:1048F0008053994201D1026922B1826A99421BD048
:1049000049B10AE00268816A5268C2F308020A806B
:10491000816A891C08E0016971B10168496801F088
:104920007F011170816A491C8162C18D491E090491
:10493000090CC18503D01BE001684968F1E70168F3
:10494000CA6822F02002CA600168CA6822F4807234
:10495000CA6001684A6922F001024A61202180F898
:10496000421000214163026B012A03D0FEF77AFD59
:10497000002008BD016301680C3151E8002F22F0CE
:10498000100241E80023002BF5D101680A68D20625
:1049900002D50A6849680091818DFEF7E0FAE7E7E1
:1049A00070B5044600680169E26821F44051114382
:1049B0000161A1682069E269014360691043014314
:1049C0002068C26849F20C639A430A43C2602068B7
:1049D0004169A26921F44071114341613149206864
:1049E000884202D03049884202D1FDF7B3FD01E090
:1049F000FDF7A0FDE2690023192164253226B2F5F6
:104A0000004F626828D0A0FB0101930F9200FBF7D2
:104A1000ABFC0146B0FBF5F06FF01802504301EB20
:104A2000800006EB0010B0FBF5F000F0F002B1FBE7
:104A3000F5F002EB0012B1FBF5F06FF018035843EC
:104A400001EB800006EB0010B0FBF5F000F00F006A
:104A500021681044886070BDA0FB010192185B4181
:104A6000FBF782FC0146B0FBF5F00201B1FBF5F06B
:104A70006FF01803584301EB800006EBC000B0FB59
:104A8000F5F000F0F80002EB4002B1FBF5F05843FE
:104A900001EB800006EBC000B0FBF5F000F0070072
:104AA000D6E70000001001400014014037B582B085
:104AB0001346039A826204468385002060642221A3
:104AC00084F84210E56B1B49E963E56B1A492964D8
:104AD000E56B1A49E964E16B08652168E06B091D23
:104AE000FCF794FD2068016840680090206948B197
:104AF00020680C3050E8001F41F4807140E800123B
:104B0000002AF5D12068143050E8001F41F001015F
:104B100040E80012002AF5D12068143050E8001F48
:104B200041F0400140E80012002AF5D105B0002014
:104B300030BD0000D14700085748000887470008EB
:104B40002DE9F8431F4690460D460446089E23E093
:104B5000701C21D0FCF796FEC01BB0421AD8CEB113
:104B60002068C168490717D5802D15D0402D13D076
:104B70000168C94309070FD4016800254068009007
:104B80002046FFF777FE0820606484F8405001203B
:104B9000BDE8F8830320FBE72068006835EA0000E1
:104BA00004D000204045D3D00020F1E70120F9E7F0
:104BB0000148FEF7D7B90000FC080020234818B4CC
:104BC00000680168890604D501684068009018BC37
:104BD00070471F490968C906F9D5016840681D4A30
:104BE0000090106801681C4C090301684FF0240311
:104BF00021F00101016011684868C0F1240080B211
:104C000020804B600FD411680B6843F400230B60C5
:104C100011680A6842F001020A601228D7D10F49D0
:104C200001F116000EE00E498B6A23F400238B621B
:104C300011680A6842F001020A601228C7D10749C8
:104C400001F13A0018BC03F045BB00004409002004
:104C500000480040940A00206C000020E41400206A
:104C6000006002401F4818B40068C00637D51E49CE
:104C70000868026840680090C86B006802681B4CB6
:104C8000120302684FF4007322F001020260C86B45
:104C900000684268C2F5007292B222804360C86B1D
:104CA000006803680CD443F400230360C86B0068F9
:104CB000016841F0010101600D4901F580600BE0E0
:104CC00023F400230360C86B0068016841F0010110
:104CD0000160084901F5007018BC02F092BD18BCD3
:104CE00070470000001401408C090020EC030020F4
:104CF000801500208017002070B5D0F8C822D0F8A9
:104D0000D43200EB8303D3F8C032002B28D001F05B
:104D10000F0C0CEB8C0400EB84050026AC6954B13D
:104D20000CEBCC0C02EB8C02D2F81CC0B4FBFCF2F6
:104D30000CFB1242B2B1C3F81462D0F8D42200EBDB
:104D40008200D0F8C402D0F810C0BCF1000F05D02A
:104D50000A4603F50471D3F80802E047002070BD4D
:104D6000032070BDAE6100231A4600F036FFF5E760
:104D700070B50446D4F8D40204EB8000D0F8C052D9
:104D8000002D12D0204600F001FEC5F80C02D4F828
:104D9000D412D5F8040204EB8101D1F8C412CA6818
:104DA00005F503719047002070BD032070BD000021
:104DB00070B50446224D2046297800F0F6FC28788C
:104DC000002600F00F0000EB800004EB80008684DA
:104DD0006978204600F0E9FC687800F00F0000EBED
:104DE000800004EB8000A0F86461A978204600F000
:104DF000DCFCA87800F00F0000EB800004EB8000E2
:104E00008684C684D4F8D40204EB8000D0F8C012A3
:104E100099B1D0F8C40240688047D4F8D40204EBBA
:104E20008000D0F8C00201F06AF9D4F8D40204EB93
:104E30008000C0F8C062C4F8BC62002070BD0000F1
:104E40002405002010B5D0F8D41200EB8100D0F872
:104E5000C042002C10D0D0F8C41259B194F800020E
:104E6000FF2807D08B6894F8012221469847FF203D
:104E700084F80002002010BD032010BD0A2101802B
:104E8000004870472805002070B5064682210C486E
:104E900000F0E4FB05460121094800F0DFFB044671
:104EA0008121074800F0DAFB0DB11021A9714021E2
:104EB00004B1A18000B1818043203080004870BDE2
:104EC0003405002070B5064682210D4800F0C6FB6F
:104ED000054601210A4800F0C1FB0446812108482B
:104EE00000F0BCFB0DB11021A9714FF4007104B1A9
:104EF000A18000B1818043203080014870BD000056
:104F00003405002070B5064682210C4800F0A6FB4F
:104F100005460121094800F0A1FB0446812107480C
:104F200000F09CFB0DB11021A971402104B1A180BA
:104F300000B1818043203080004870BD34050020DE
:104F40002DE9F04704464FF4077001F0D9F8054603
:104F50004FF00008002D63D04FF407712846FBF78F
:104F600013FBD4F8D40204EB8000C0F8C052C4F89C
:104F7000BC52207C0127494E4FF01009002858D020
:104F8000402302223178204600F06EFD307800F098
:104F90000F0000EB800004EB800087844023022296
:104FA0007178204600F060FD707800F00F0000EB93
:104FB000800004EB8000A0F86471B07800F00F006E
:104FC00000EB800004EB8000A0F826900823032269
:104FD000B178204600F048FDB07800F00F0000EBFB
:104FE000800004EB80008784C5F80482D4F8D402E2
:104FF00004EB8000D0F8C40200688047C5F8148232
:10500000C5F81882D5F80422002A3CD0207CC8B309
:1050100040237178204600F033FD0020BDE8F08782
:10502000D4F8D40204EB8000C0F8C0820220BDE8AE
:10503000F0874FF4007302223178204600F014FD0F
:10504000307800F00F0000EB800004EB80008784D4
:105050004FF4007302227178204600F005FD70784D
:1050600000F00F0000EB800004EB8000A0F86471FA
:10507000B07800F00F0000EB800004EB8000A0F897
:105080002690A3E702E00220BDE8F0874FF400730A
:105090007178204600F0F4FCBFE7000024050020F2
:1050A00010B5D0F8D41200EB8101D1F8C01200295C
:1050B0000CD0027CDFF82CC052B1D1F8042240237E
:1050C0009CF8011000F0DCFC002010BD032010BD96
:1050D000D1F804224FF400739CF8011000F0D0FCCA
:1050E000F2E7000024050020002907D0D0F8D422E0
:1050F00000EB8200C0F8C412002070470320704704
:10510000D0F8D42200EB8200D0F8C002002803D0EF
:10511000C0F804120020704703207047D0F8D43242
:1051200000EB8300D0F8C002002805D0C0F80812B8
:10513000C0F810220020704703207047F0B583B0FC
:1051400006460C46D6F8D40206EB8000D0F8C072B2
:105150000021029101910025002F0DD0217811F03E
:1051600060023BD0202A0AD02146304600F0C9F820
:10517000032503B02846F0BD03B00320F0BDE2884C
:1051800012B311F0800F10D0D0F8C40294F801C00F
:105190003946836860469847E288072A00D9072283
:1051A0003946304600F0D3F8E3E7607887F800022C
:1051B000E088402800D34020C2B287F80122394657
:1051C000304600F0AAF8D4E7D0F8C40294F801C041
:1051D00000228368214660469847CAE7607858B144
:1051E0000128C6D00A2817D00B2825D021463046E2
:1051F00000F087F80325BCE796F89C02032805D049
:105200002146304600F07DF80325B2E7022201A9CD
:10521000304600F09CF8ACE796F89C02032805D0D5
:105220002146304600F06DF80325A2E7012202A9CD
:10523000304600F08CF89CE796F89C02032898D042
:105240002146304600F05DF8032592E710B5D0F80E
:10525000D41200EB8101D1F8C0220121002A03D031
:10526000D2F8143213B117E0032010BD0121C2F8A7
:1052700014120A49D2F810C2097801F00F0303EBA7
:10528000830300EB8303C3F818C0D2F81032D2F8BE
:10529000082200F0A2FC0021084610BD24050020D1
:1052A00010B50024D0F8B8225268904700B103240A
:1052B000204610BD90F89C22012A05D0022A03D076
:1052C000032A01D000F01DB84988012904D100212A
:1052D000C0F8A41200F048B87047002070470020C2
:1052E000704710B513460A46002100F0C9FB0020A4
:1052F00010BD10B513460A46002100F06EFC0020D8
:1053000010BD10B504468021204600F047FC204621
:10531000BDE81040002100F041BC10B50323C0F8E7
:105320009432C0F85821C0F85C2113460A46002187
:1053300000F0A6FB002010BD10B50521C0F89412A6
:1053400000231A46194600F09BFB002010BD10B543
:105350000223C0F894328261C26113460A460021DA
:1053600000F03BFC002010BD10B50421C0F89412E1
:1053700000231A46194600F030FC002010BD000042
:1053800010B5002806D00A46054906A000F0B2F97B
:10539000034810BD0A46024902A000F0ABF9F7E746
:1053A000F05D002043444320436F6E666967000050
:1053B0001220088000487047DC04002010B5002847
:1053C00006D00A46054906A000F094F9034810BD2E
:1053D0000A46024902A000F08DF9F7E7F05D0020CF
:1053E00043444320496E7465726661636500000042
:1053F0000420088000487047D804002010B50A46F1
:10540000024903A000F076F9004810BDF05D0020CD
:1054100053544D6963726F656C656374726F6E6926
:105420006373000010B5002806D00A46054906A09F
:1054300000F060F9034810BD0A46024902A000F0DE
:1054400059F9F7E7F05D002053544D333220566987
:10545000727475616C20436F6D506F727400000040
:1054600010B51A200880FBF767FA014810BD00004C
:10547000F0040020CA88012A01D0FFF742BF90F84B
:105480009C22012A05D0022A03D0032A08D0FFF764
:1054900038BF00218160012200F10801FFF757BFEA
:1054A0000122011DFFF753BF2DE9F84304460F46C3
:1054B00000200090002600257888010A082970D273
:1054C000DFE801F0AB040C22ABAB8B9AD4F8B4123A
:1054D000207C0A68694690470646A3E0207C4FF08E
:1054E000020840B1D4F8B802C16A68468847064647
:1054F00086F8018096E0D4F8B802816A6846884749
:10550000064686F801808DE0C0B206285FD2DFE84B
:1055100000F0031221303F4FD4F8B402426822B1A8
:10552000207C6946904706467CE039462046FFF7D6
:10553000E8FE012576E0D4F8B402826822B1207C2E
:105540006946904706466DE039462046FFF7D9FE8A
:10555000012567E0D4F8B402C26822B1207C694614
:10556000904706465EE039462046FFF7CAFE012511
:1055700058E0D4F8B402026922B1207C6946904711
:1055800006464FE039462046FFF7BBFE012549E0BD
:10559000D4F8B40242692AB1207C69469047064695
:1055A00040E03AE039462046FFF7ABFE012539E0FE
:1055B000D4F8B402826922B1207C6946904706463D
:1055C00030E039462046FFF79CFE01252AE03946A7
:1055D0002046FFF796FE012524E0207C28B13946BD
:1055E0002046FFF78EFE01251CE0D4F8B802416B7F
:1055F00068468847064615E0207C28B13946204693
:10560000FFF77FFE01250DE0D4F8B802016B684674
:10561000884706460721717004E039462046FFF7A7
:1056200070FE0125002D0CD1FA8892B1BDF8000062
:1056300048B1824200D90246009231462046FFF727
:1056400086FEBDE8F88339462046FFF75AFEBDE8DE
:10565000F8832046FFF788FEBDE8F88378B50E464C
:10566000054600246A88297828468A4212D9009182
:105670008A420FD9694600F01BF84178052904D108
:105680000446A178B14205D000246988BDF8002005
:105690009142EFD8204678BD00210278002A05D03B
:1056A000491CC9B2401C0278002AF9D1084670474B
:1056B0000A8803781A440A8001780844704790F8F1
:1056C0009C22012A05D0022A03D0032A01D0FFF729
:1056D00018BECA88022A01D0FFF713BE0121C1609B
:1056E000D0F8A41209B10321C160022200F10C011B
:1056F000FFF72DBE70B50D461646002825D004468E
:105700002046FFF7C9FF022101EB4000B0F5007F02
:1057100001D9080204E02046FFF7BEFF4000801CCC
:1057200030803078287003206870022021780029AA
:105730000BD0002122782A54641C401CC0B229548A
:10574000401CC0B22278002AF4D170BD014600206E
:10575000002906D0012905D0022905D0032905D04A
:1057600003207047032070470120704703207047D3
:1057700000280FD00023C0F8B832C0F8C432C0F8F7
:10578000D03209B1C0F8B412012180F89C12027025
:1057900000F000B90320704710B5D0F8C802FCF73C
:1057A0008BF9BDE81040FFF7D1BF10B5D0F8C802A3
:1057B000FCF75DF9BDE81040FFF7C8BF70B50446BF
:1057C0000B469446002B09D043F080012046FFF79A
:1057D00084FDFF285ED000284CD05BE004F114006B
:1057E000D4F89412002502293BD18268C1688A420C
:1057F0000CD9521A826061462046FFF77AFD0023D9
:105800001A461946204600F03BF92AE0914214D18D
:105810004068884211D3D4F8981288420DD20022F1
:1058200011462046FFF765FDC4F8985200231A463A
:105830001946204600F024F913E094F89C0203284E
:1058400008D1D4F8B802C16821B1C4F8D452C168F3
:10585000204688478021204600F0A0F92046FFF727
:105860006BFD94F8A00220B1204600F0F5F984F811
:10587000A0520FE094F89C1203290BD1D4F8B8126F
:105880004A693AB1C4F8D4024A6919462046904799
:10589000002800D1002070BD10B504460B46944688
:1058A0000022002B09D003F07F012046FFF715FDF1
:1058B000FF2857D0002840D054E004F5AA70D4F84F
:1058C000941203294ED1C268816891420AD98A1A7A
:1058D0008260C068824200D3024661462046FFF7DC
:1058E00000FD3FE094F8AA0210F01F0006D0012846
:1058F00006D002280AD0002070B11AE00020FBE791
:1059000094F8AE122046FFF7EAFCF5E794F8AE12E1
:105910002046FFF7E2FCEFE794F89C12032908D138
:10592000D4F8B8120A6922B1C4F8D4020969204631
:1059300088472046FFF718FD14E094F89C120329CD
:105940000DD1D4F8B812D1F818C0BCF1000F06D0B0
:10595000C4F8D4028A6919462046904702460AB123
:10596000104610BD002010BD0020704710B5002467
:10597000012180F89C12D0F8B822002A04D0526885
:105980000179904700B10324204610BDD0F8C80229
:10599000FCF7BFB810B50178002927D11449C1F828
:1059A000E004C0F8C8124FF0A0400860042008715D
:1059B0000222CA71002088714A728872C872087304
:1059C0008873C8730846FCF7FBFB08B1FAF79BFF26
:1059D00080210748FBF7FBFF402200210448FBF72A
:1059E000FAFF802201210248FBF7F5FF002010BDDD
:1059F0001072002011F0800F01F07F01D0F8C80272
:105A000001EBC10100EB810001D0807D704790F86F
:105A10005602704710B5D0F8D42200EB8202D2F8BB
:105A2000B822002A04D090F89C32032B02D004E064
:105A3000032010BD126A02B19047002010BD10B5BE
:105A4000D0F8D42200EB8202D2F8B822002A04D087
:105A500090F89C32032B02D004E0032010BD526A60
:105A600002B19047002010BD10B59C461346D0F8F7
:105A7000C8026246FCF756F8BDE81040FFF766BE64
:105A800010B5D0F8C802FCF77EF8BDE81040FFF76B
:105A90005DBE2DE9F04104460025012684F89C6294
:105AA0000020C4F894026060C4F8A40284F8A00244
:105AB000D4F8B802002806D0426822B1002120465E
:105AC000904700B103250022402311462046FFF7EE
:105AD000CBFFA4F864614027C4F860714023002222
